:020000040800F2
:10000000001800202D2700089126000893260008DC
:1000100000000000000000000000000000000000E0
:10002000000000000000000000000000F5150008BE
:10003000000000000000000061160008952600087E
:100040009D27000800000000A52600089D27000845
:100050009D2700089D2700089D2700089D27000870
:10006000000000009D2700089D2700089D2700082C
:100070009D2700089D2700089D270008000000001C
:100080009D27000800000000000000009D270008D8
:10009000000000009D2700089D2700089D270008FC
:1000A000000000009D27000800000000B5260008A1
:1000B0009D27000800000000000000009D270008A8
:1000C00010B5064C2378002B07D1054B002B02D02E
:1000D000044800E000BF0123237010BD0800002089
:1000E000000000001C280008044B10B5002B03D0B2
:1000F0000349044800E000BF10BDC04600000000F6
:100100000C0000201C2800080023C25C0133002AD8
:10011000FBD1581E7047000002B4714649084900DF
:10012000095649008E4402BC7047C04602B471466D
:1001300049084900095C49008E4402BC7047C0462A
:10014000002243088B4274D303098B425FD3030A16
:100150008B4244D3030B8B4228D3030C8B420DD329
:10016000FF22090212BA030C8B4202D312120902B7
:1001700065D0030B8B4219D300E0090AC30B8B42F5
:1001800001D3CB03C01A5241830B8B4201D38B03A3
:10019000C01A5241430B8B4201D34B03C01A524148
:1001A000030B8B4201D30B03C01A5241C30A8B428B
:1001B00001D3CB02C01A5241830A8B4201D38B0276
:1001C000C01A5241430A8B4201D34B02C01A52411A
:1001D000030A8B4201D30B02C01A5241CDD2C3098C
:1001E0008B4201D3CB01C01A524183098B4201D308
:1001F0008B01C01A524143098B4201D34B01C01AF3
:10020000524103098B4201D30B01C01A5241C3086A
:100210008B4201D3CB00C01A524183088B4201D3D9
:100220008B00C01A524143088B4201D34B00C01AC5
:100230005241411A00D20146524110467047FFE731
:1002400001B5002000F006F802BDC0460029F7D035
:1002500076E770477047C04610B5040000F02AFCEE
:10026000FA218900FFF76CFF00F060F801200022FE
:100270002100404200F020F8002010BD1023064A63
:1002800010B5116803200B431360FFF7E5FF02F080
:1002900083F9002010BDC04600200240024A1368C6
:1002A000013313607047C0468C0D0020014B186865
:1002B0007047C0468C0D002070B58901002814DA03
:1002C0000F23C0B20340083B114A9B089B009B18B8
:1002D000032210409040FC321500114085408140BF
:1002E000DC69AC432143D96170BD032583082840F4
:1002F000A840FC352E00074A9B009B18C022864070
:100300002940814092009C58B44321439950EBE727
:1003100000ED00E000E100E01F2318401E3B834099
:10032000014A13607047C04600E100E0094A431EDD
:10033000012093420DD8C021074A08485360036A40
:1003400009061B021B0A0B4303620020072390606F
:1003500013607047FFFFFF0010E000E000ED00E0D9
:1003600010B501F085FD10BD70B5841CE37F022B34
:1003700004D004238363033B180070BD0E2103687F
:10038000056C1A688A431A60012219689143196042
:100390001100A940C36B5960E27700248318426BB7
:1003A000DC771300A242E7D090472300E4E7000087
:1003B000F0B50B6887B0029300230191029ADA40EE
:1003C00001D107B0F0BD01229A4003920399029A2D
:1003D0000A40009200D18CE0019A10215268160068
:1003E0008E43022E0ED107251D40AD000139A940D4
:1003F000DC08A4000419276A8F4301990969A94000
:100400000F43276203245F00BC40E4430568013EBC
:100410002540AC4603251540BD4061460D430560AF
:10042000012E0FD801998668CD682640BD4035431E
:1004300085604668039915098E4301210D409D4052
:1004400035434560C56801992C408D688021BD40C9
:1004500049052C43C4600A424BD00121264C032697
:10046000A5691E400D43A561A4699D080C40059433
:10047000059C0F242149AD00B6006D18B4409021B1
:10048000AF68C905A743002488420CD01C49013439
:10049000884208D01B490134884204D01A490334E9
:1004A000884200D1023CB44000993C430E00AC604D
:1004B000164CCD4327683E43D10301D43E002E4065
:1004C00026606768009E3E43910301D43E002E40A3
:1004D0006660A768009E3E43D10201D43E002E40D4
:1004E000A660E668009F3743920201D42E40370091
:1004F000E760013362E7C04600100240000001409F
:100500000004004800080048000C004800040140B6
:1005100000690840411E8841C0B27047002A01D0DE
:10052000816170478162FCE7024A5368184350605A
:100530007047C046007000400223054A11680B4313
:1005400013600423034A11690B43136130BF7047E2
:100550000070004000ED00E0F0B5036885B00500D4
:10056000DB072FD42B689B0700D586E02B681B0781
:1005700000D5C6E02B685B0700D5E9E02B68DB06F9
:100580001AD56A69BA4C0423012A00D055E1616B7F
:1005900002260B436363636B1A436263FFF786FEB5
:1005A0000700636B334200D140E1F821626BAB6915
:1005B0008A43DB0013436363296A002900D063E1A7
:1005C000002018E00C21AA4C62680A40042A0BD0D3
:1005D00063680B40082B10D1C0226368520213409D
:1005E00080225202934208D123689B03BAD56B68DC
:1005F000002BB7D1012005B0F0BD6B68012B13D1E2
:10060000802322685B0213432360FFF74FFE80269E
:100610000700B60223683342A4D1FFF747FEC01B90
:100620006428F7D90320E6E7002B16D12368914A06
:1006300080261340236023688F4AB602134023604C
:10064000FFF734FE07002368334200D18AE7FFF743
:100650002DFEC01B6428F6D9E4E7052B05D18023C5
:100660002268DB0213432360CAE72368814A1340F0
:1006700023602368804A1340C6E70C227C4C6368E1
:1006800013420BD063681340082B15D1C022636856
:10069000520213408022120293420DD123689B071D
:1006A00002D5EB68012BA5D1F82122682B698A437A
:1006B000DB001343236059E7EA680123002A0FD0C7
:1006C0002268022613432360FFF7F0FD070023682A
:1006D0003342E9D1FFF7EAFDC01B0228F7D9A1E7B1
:1006E000226802269A432260FFF7E0FD0700236894
:1006F000334200D13AE7FFF7D9FDC01B0228F6D9F3
:1007000090E7EA6901235A4C002A10D0626A022657
:1007100013436362FFF7CAFD0700636A334200D0E8
:1007200028E7FFF7C3FDC01B0228F6D97AE7626A03
:1007300002269A436262FFF7B9FD0700636A3342FB
:1007400000D117E7FFF7B2FDC01B0228F6D969E711
:1007500080220021464C5205E3690091134208D1E2
:10076000E3691343E361E36913400393039B0123AC
:1007700000938027414E7F0033683B4206D0AB6830
:10078000012B13D1226A1343236230E033683B43C9
:100790003360FFF78BFD019033683B42EFD1FFF7E9
:1007A00085FD019BC01A6428F6D93BE70122002B86
:1007B00014D1236A022793432362236A03329343AB
:1007C0002362FFF773FD0600236A3B4225D0FFF743
:1007D0006DFD2B4B801B9842F6D923E7052B0BD1DF
:1007E000216A013B0B432362236A1A432262FFF70B
:1007F0005DFD022706000DE0236A93430422236275
:10080000236A9343C0E7FFF751FD1D4B801B9842BD
:1008100000D907E7236A3B42F5D0009B012B00D0AB
:10082000ACE6E369174A1340E361A7E6FFF73EFD34
:10083000C01B022800D8B4E6F4E6053203D1626B8F
:100840009A436263B1E6626B02261343012263633B
:10085000636B93436363FFF729FD0700636B3342C8
:1008600000D1A9E6FFF722FDC01B0228F6D9D9E680
:1008700000100240FFFFFEFFFFFFFBFF0070004083
:1008800088130000FFFFFFEF0C22264C0120636855
:100890001340082B00D1AEE62368234A134023609F
:1008A00002292FD1FFF702FD80260700B604236836
:1008B000334221D10F22E36A9343EA6A1343E3628E
:1008C000696AAB6A62680B43184980250A40134382
:1008D0006360802322685B0413432360FFF7E6FC18
:1008E0000600AD0423682B4200D069E6FFF7DEFC6A
:1008F000801B0228F6D995E6FFF7D8FCC01B02281A
:10090000D5D98FE6FFF7D2FC80250600AD04236819
:100910002B4200D154E6FFF7C9FC801B0228F6D910
:1009200080E6C04600100240FFFFFFFEFF7FC2FFCF
:1009300030B5124D89B010222900684601F054FFED
:10094000290004AC10311022200001F04DFF0C22D0
:100950000B494B681A40082A0DD1CA6A0F21684614
:100960009B0C0B400A40C55CA15C0648FFF7E8FB06
:10097000684309B030BD0348FBE7C046342800088F
:100980000010024000127A00F7B50122434C060025
:1009900023680F0013408B421CD33268930723D483
:1009A000D30729D4012322681A40974267D33368BA
:1009B0003B4C5B076AD4FFF7BBFF6368394A1B06F1
:1009C0001B0FD35CD840384B18600320FFF744FC62
:1009D000002008E0236893430B43236023681340FF
:1009E0009942DAD00120FEBDF0202D494B688343A7
:1009F000B06803434B60D3E7294D72682B68012A26
:100A00001AD19B03EED503216B688B4313436B60B4
:100A1000FFF74CFC73680190012B15D10C226B6819
:100A20001340042BBED0FFF741FC019BC01A1F4BA3
:100A30009842F3D90320D6E7022A02D19B01E2D4DF
:100A4000D0E79B07DFD4CDE7022B12D00C226B68D6
:100A50001342A7D0FFF72AFC019BC01A134B984200
:100A6000F4D9E7E7FFF722FC019BC01A0F4B98422D
:100A7000E0D80C226B681340082BF3D192E7226870
:100A80009A43226022681A42ACD190E76368084A10
:100A90001340F268134363608DE7C04600200240B4
:100AA00000100240B0280008040000208813000055
:100AB000FFF8FFFF014B18687047C0460400002094
:100AC000044B054A5B685B055B0FD35C034A106807
:100AD000D840704700100240C028000804000020E1
:100AE000F0B5036885B00500DB0328D5802200211E
:100AF0003B4C5205E3690091134208D1E36913436B
:100B0000E361E36913400393039B01230093802770
:100B1000344E7F0033683B422FD0C022236A9200BC
:100B20001340314E3BD1236A1E406B681E43009B2D
:100B30002662012B03D1E3692C4A1340E3612A6842
:100B4000D30706D5032026490B6B8343A8680343CC
:100B50000B63930606D5102021490B6B8343E8688D
:100B600003430B630020930317D580211C4A136BAA
:100B70008B4329690B4313630FE033683B433360B6
:100B8000FFF794FB019033683B42C6D1FFF78EFB21
:100B9000019BC01A6428F6D9032005B0F0BD69682E
:100BA0000A409342BFD08023226A206A11005B0270
:100BB00003432362236A0E483140034023622162CB
:100BC000D307B0D5FFF772FB07000222236A134256
:100BD000A9D1FFF76BFB074BC01B9842F5D9DBE7A8
:100BE0000010024000700040FFFCFFFFFFFFFFEF1E
:100BF000FFFFFEFF88130000036810B59A68040029
:100C0000D2040AD5DB68DB0507D501F021FB21689A
:100C1000054BCA68D2B21343CB608022034B9202C9
:100C20005A610123637710BD7FFEFFFF000401407E
:100C3000A0210268F8B5D36804008B43D360FFF7A6
:100C400035FBFA2706002025BF002368DB682B420E
:100C500001D00020F8BDFFF729FB801BB842F4D972
:100C60000320F7E7F8B5402403680500DA6822425C
:100C700001D00020F8BD01225242DA60FFF716FBD6
:100C8000FA270600BF002B68DB682342F1D1FFF78B
:100C90000DFB801BB842F6D90320EBE7002309289F
:100CA00003D81B011843C0B270470A380133C0B2E1
:100CB000F5E700000223F7B50D00017F04001F00D7
:100CC000012932D001214377036801779B683F31C6
:100CD00028786E78AF780B40002A28D1002B00D1FD
:100CE000EB70FFF7DBFF01903000FFF7D7FF060046
:100CF0003800FFF7D3FFEF78019B3F040743180448
:100D000007433602CA22236820005A62773A5A62A1
:100D1000FFF7A8FF3E432368071E12D0FF225A6246
:100D2000042363770023237701273800FEBD002BBF
:100D300000D1EB700004360206433743EE783604E8
:100D4000E0E71448144906401E609A6828690A4082
:100D50009A60EA68996802430A4380219A60DA68D7
:100D60008A43DA609B689B060BD42000FFF760FF84
:100D7000002806D0FF2223685A620423277763776E
:100D8000D2E7FF2223685A62012363770023237787
:100D9000CBE7C0467F7F7F00FFFFFBFF0A230209EE
:100DA00053430F2210401818C0B2704770B50C00A2
:100DB0007F2501683F208B6A63600B695B045B0CD5
:100DC000A3600B680D490B401E0A190C2E401D40F4
:100DD00040230840194020706670A570E170002A19
:100DE0000AD1FFF7DBFF20703000FFF7D7FF6070FC
:100DF0002800FFF7D3FFA070002070BD7F7F7F0029
:100E000070B53F250C0003680D495B680B40180C5A
:100E1000DE041D401B04F60E5B0FE0706670A570CB
:100E20002370002A0AD1FFF7B9FFE0703000FFF706
:100E3000B5FF60702800FFF7B1FFA070002070BD03
:100E40003FFFFF00036806491A686A300A401A60CB
:100E50009A682331FF318A439A60202303707047D8
:100E6000DFFEFFFFF0B506006A363478030002208B
:100E7000202C35D10138002932D0002A30D08025ED
:100E80009C686D01AC4204D11D69002D01D1014265
:100E900026D11D0068352F780220012F20D001387F
:100EA00028705965190058310A804A808022520101
:100EB000944218D11A69002A13D113491A005C32DE
:100EC000118000202222D8661B6832709968213A6E
:100ED0000A4328709A609022196852000A431A60E7
:100EE000F0BDFF21EAE7002C04D11A69002AF8D0EE
:100EF0007F21E3E7802252059442E2D11A69002A59
:100F0000F6D03F21DAE7C046FF0100007047704786
:100F1000406A0023020010B55A321380083A138049
:100F2000FFF7F5FF10BD000070B504000568C26949
:100F3000836800692968034360693F4E03433F4863
:100F4000134301400B432B606B683D49206A0B4003
:100F5000E1680B436B60A369A9680343394801400A
:100F60000B43AB6080231B02B54210D103203649EE
:100F7000096B01403548405C9A4213D0082858D884
:100F8000FFF7D4F8375742574B575757500030495F
:100F90008D424CD19A422CD1FFF792FD63684000FC
:100FA0005B080BE0082821D8FFF7B6F8F6200520EB
:100FB000182020201B0063685808264BC018616861
:100FC000FFF7BEF883B200200F22190091430A00F8
:100FD0001B0721685B0F1343CB6070BDFFF7A8FCB4
:100FE000DCE76368580880235B02E7E70120002301
:100FF000EAE7FFF765FD61684B081818FFF7A0F8EE
:1010000080B2E8600020E8E76168134B4808C01828
:10101000FFF796F880B2F060F4E7FFF789FC6168AB
:101020004B08F4E7802361681B024808EFE79A4207
:10103000DCD00120D1E7C04600380140F369FFEF62
:10104000FFCFFFFFFFF4FFFF00100240542800080D
:10105000004400400024F40000127A00436A30B5D6
:10106000DA0706D50168284C4A682240846A224380
:101070004A609A0706D50168244C4A682240C46A2F
:1010800022434A605A0706D50168214C4A6822402B
:10109000046B22434A601A0706D501681D4C4A6852
:1010A0002240446B22434A60DA0606D501681A4C96
:1010B0008A682240846B22438A609A0606D50168BA
:1010C000164C8A682240C46B22438A605A0610D5A7
:1010D0000168134D4A68046C2A4022434A6080220A
:1010E0005203944205D14A680E4C2240446C22437C
:1010F0004A601B0606D502680B4953680B40816C99
:101100000B43536030BDC046FFFFFDFFFFFFFEFFF6
:10111000FFFFFBFFFF7FFFFFFFEFFFFFFFDFFFFF93
:10112000FFFFEFFFFFFF9FFFFFFFF7FF70B5041EFC
:1011300001D1012070BD050069352B78DBB2002B91
:1011400004D102006832137001F042FA2423012115
:1011500022682B70136820008B431360FFF7E4FEB6
:101160000128E6D0636A002B02D02000FFF776FF4B
:1011700023680B495A6800200A4008215A609A687F
:101180008A439A60012219680A431A6022002023C8
:10119000E0666A3268342B7013702070CAE7C0466C
:1011A000FFF7FFFFF8B504000E0015001F002268CE
:1011B000D36933409B1B59424B41AB4201D00020C5
:1011C00018E0069B0133F3D0069B002B13D1236854
:1011D0000C491A6803200A401A609A68A331FF314B
:1011E0008A439A60220020236932137053700023CF
:1011F00068342370F8BDFFF759F8069BC01B834283
:10120000D5D2E4E75FFEFFFFF0B5070085B003939A
:1012100069373B7804000D0016000220202B46D1D0
:101220000138002943D0002A41D08023A2685B0105
:101230009A4204D12369002B01D1014237D1230006
:1012400068331A780220012A31D001221A70002353
:10125000E36621333B70FFF729F8230050331E80EB
:101260005E80802602907601210052310A8892B277
:10127000002A0DD1039B402100932000029BFFF721
:1012800091FF002812D1202368343B7020700EE0BB
:101290000B880022013B9BB20B80039B80210093B3
:1012A0002000029BFFF77EFF002802D0032005B03C
:1012B000F0BDA3682268B34208D12369002B05D191
:1012C0002B880235DB05DB0D1385CDE72B78013547
:1012D0001385C9E7030030B569331B78020002208B
:1012E000212B0FD114005234238811689BB2002B9C
:1012F00009D10A687E3082430A60402208680243AE
:101300000A60002030BD802095684001D36C854282
:101310000DD1106900280AD118880233C005C00D0C
:101320000885D3642388013B9BB22380E9E7581CDE
:10133000D0641B780B85F5E74021026810B513686F
:101340008B4313600300202269331A70FFF7DEFD20
:10135000002010BD020070B56A321178036822299E
:101360002DD1010080245C310D88998C64012940C5
:101370008568436DA5421ED10469002C1BD11980DC
:1013800002334365010000245A310B88013B9BB2B4
:101390000B80A3420DD103680C4D196829401960D8
:1013A00099682335FF35A94399602023137000F015
:1013B0009BFF200070BD5C1C44651970E2E70822A9
:1013C000996902240A439A61F3E7C046DFFEFFFFF2
:1013D0000F2270B504000068C36901681A4008D183
:1013E00020252B4205D0294203D02000FFF7B2FF71
:1013F00070BD8568002A60D00122154003D1902677
:101400007600314259D0134205D0CE0503D5026291
:10141000E66E3243E2660222134206D0002D04D06B
:101420000262E66E92183243E2660422134206D04C
:10143000002D04D00262E66E023A3243E2661A07D9
:1014400008D58A0601D4002D04D008220262E06E7D
:101450000243E266E26E002ACAD02022134204D080
:10146000114202D02000FFF775FFE36E20001B073A
:1014700004D423689D6840231D401AD0FFF7E2FC86
:10148000402123689A680A420FD09A68606E8A43A6
:101490009A60002809D0134B4363FEF765FF0028CC
:1014A000A6D0606E436B9847A2E72000FFF72FFDA0
:1014B0009EE7FFF72CFDE5669AE78022134205D0F0
:1014C000114203D02000FFF705FF91E740221342AD
:1014D00000D18DE7114200D18AE72000FFF72CFFF1
:1014E00086E7C046110F000810B500F0F5FA00209D
:1014F00010BD10B500F0ACFC012801D000F0D2F80E
:1015000010BD0300012208334360C3600361002360
:101510005242826003607047002303617047436852
:101520009A684B608A609A685160996003680861A4
:1015300001330360704703000A6830B50833541C58
:101540000BD103695A684A6091608B6059600368E7
:1015500008610133036030BD23005C682568AA423E
:10156000FAD2EFE74168826803698A608268516055
:101570005968884200D15A60002202611A68501EE0
:1015800018607047034B1B68013301D072B6FEE749
:1015900072B6FEE70000002000000000000000001E
:1015A0000B4A13681868203080F30988022080F302
:1015B0001488BFF36F8F3FBCAE4608BC04BC62B654
:1015C0001847C046C046C046C046C046C046C04692
:1015D0003C0C002010B58024031F64041C60043BF5
:1015E00019600349043B1960143B40381A6010BD70
:1015F00085150008704700008022044B52051A60D0
:10160000BFF34F8FBFF36F8F7047C04604ED00E00C
:1016100072B6044A136801331360BFF34F8FBFF3F0
:101620006F8F704700000020054A1368002B01D11E
:1016300072B6FEE7013B1360002B00D162B6704723
:1016400000000020EFF3108072B67047002080F396
:10165000108870470000000000000000000000003B
:10166000EFF309800E4B1A6820381060F0C0444632
:101670004D4656465F46F0C008B572B600F0B2FB64
:1016800062B60CBC116808681030F0C8A046A946C4
:10169000B246BB4680F309882038F0C81847C046D8
:1016A0003C0C002010B5FFF7CDFF040000F04CFA11
:1016B000002803D08022034B52051A602000FFF758
:1016C000C6FF10BD04ED00E0FA21064B10B5186806
:1016D0008900FEF735FD0722034B01381860034BE4
:1016E0001A6010BD0400002014E000E010E000E0EB
:1016F000FF220A4B1204196810B50A431A60FF2230
:10170000196812060A431A60FFF7DEFF0022044B35
:101710001A60FFF745FFFFF735FFC04620ED00E0F8
:101720000000002010B50F4B1A68824218D35C6885
:101730001919884203D14168180009195960416894
:101740004418A24207D1084C2468A24203D054682E
:101750001268611841600260984200D0186010BDA4
:101760001300E1E7340C002024000020F8B5040049
:1017700000F0DCF9384A39481368002B1ED138498B
:101780000733194236D0CD189D43C0231B01C91819
:101790004B1B29000025334ECB187560316007269E
:1017A000083BB3431D605D605D1A136028C12E4B7A
:1017B0001D602E4B1D6080231B06036006683442AB
:1017C00016D1002C14D02300072108330B4201D07E
:1017D0008B430833002B0BD024490D68AB4207D84C
:1017E00020490C686068834207D8126894420BD184
:1017F000002528E0C0231B01CCE72768BC46002F4A
:10180000F3D021006446EDE70A68170022680A60F9
:10181000C21A102A08D9E018410701D072B6FEE7B3
:1018200042606360FFF77EFF6368104AED1A15603F
:101830000D4A11688D4200D215601E433D00002301
:1018400008356660236000F0FDF96B0701D072B6C1
:10185000FEE72800F8BDC04624000020280C002028
:1018600028000020340C0020300C00202C0C00201C
:1018700010B500281BD00E4A0838436812680400CF
:101880001A4201D172B6FEE70168002901D072B692
:10189000FEE79343436000F049F9064A6368116824
:1018A00020005B181360FFF73DFF00F0CBF910BD7F
:1018B000280C00202C0C0020074A13681968074BDD
:1018C000002903D1012252421A6070471268D2687F
:1018D000D2685268F8E7C046400C0020180D00207E
:1018E000F8B50400144B154D1E6828680F0004302D
:1018F000FFF738FE631C07D1002F05D02968104878
:101900000431FFF70CFEF8BD2B6834195C60A64269
:1019100006D90C4B186829680431FFF70CFEF2E772
:10192000094B186829680431FFF705FE074B1A6850
:101930009442E8D21C60E6E7600D00203C0C0020D9
:10194000380D0020440C0020400C0020180D002011
:10195000F0B5950085B0029028000F000393FFF7C3
:1019600005FF061E00D18EE05420FFF7FFFE041E87
:1019700000D185E00723043D066376199E430023CA
:1019800000961A00F95C3432A154FA5C002A02D0A5
:101990000133102BF5D1230000250A9E43331D701F
:1019A000062E00D90626231D1800E6626664A5648B
:1019B0000193FFF7B1FD20001830FFF7ADFD0723BD
:1019C0009E1B230050332461A6616462E564039A80
:1019D0001D7002990098FFF7FDFD0B9B2060002B06
:1019E00000D01C60FFF714FE2E4B2F4D1A680132F9
:1019F0001A602A68002A49D12C601B68012B1DD16E
:101A00002A4E37008C3730001436FFF77AFDB74284
:101A1000F9D1274E3000FFF774FD264F3800FFF74D
:101A200070FD2548FFF76DFD2448FFF76AFD244847
:101A3000FFF767FD234B1E60234B1F60234A13688B
:101A400001331360224AE36A11688B4200D91360A4
:101A500014205843154B01991818FFF760FDFFF744
:101A6000E3FD1C4B01261B68002B06D02B68DA6AAD
:101A7000E36A9A4201D2FFF7BFFD300005B0F0BD26
:101A80003000FFF7F5FE01267642F6E7114B1B68A2
:101A9000002BD3D12B68E26ADB6A9342CED82C604C
:101AA000CCE7C046D40C00203C0C0020480C0020A1
:101AB000EC0C0020000D0020200D00204C0D00201B
:101AC000380D0020400C0020440C0020E40C0020C5
:101AD000E80C0020340D002013B500240D4B0094B9
:101AE0000193802223000C490C48FFF731FF0128A5
:101AF0000BD172B601220A4B52421A60094B186090
:101B0000094B1C60FFF7F4FD13BD431CFCD172B6FA
:101B1000FEE7C046140D0020582800087D1D00086F
:101B2000180D0020340D0020600D0020024A1368BB
:101B3000013313607047C046E00C0020014B186869
:101B40007047C046600D0020334BF7B51B68002B73
:101B500035D1324B1C6801341C60002C11D1304B44
:101B60001A681268002A01D072B6FEE72D4A196879
:101B70001068186011602C4A136801331360FFF776
:101B80009BFE2A4F00263B689C4207D3244B1A68D1
:101B90001268002A19D101235B423B60244B1B6869
:101BA000DA6A14235343234AD358012B00D9012660
:101BB000214B1B68002B00D001263000FEBD1F4AC0
:101BC0000026136801331360F2E71B68DB68DD68E9
:101BD0006B689C42E1D32B1D18000193FFF7C2FCF8
:101BE000AB6A002B03D028001830FFF7BBFC144B66
:101BF000E86A1A68904200D91860142358430D4BC4
:101C0000291D1818FFF78BFC094BEA6A1B68DB6A71
:101C10009A42BBD30126B9E7E00C0020600D0020FA
:101C2000400C0020440C00201C0D0020180D00204A
:101C30003C0C0020480C0020640D0020DC0C00202F
:101C4000E80C0020F8B52B4C2368002B01D172B6AC
:101C5000FEE7FFF7DDFC2368013B23602468002CCE
:101C600004D00024FFF7E0FC2000F8BD224B1B68E5
:101C7000002BF6D014260127204B1A68002A1AD10F
:101C8000002C01D0FFF718FE1D4D2C68002C0AD047
:101C90000126FFF759FF002801D01A4B1E60013CB6
:101CA000002CF6D12C60174B1B68002BD9D0FFF706
:101CB000A3FC0124D6E7DB68DC682000251D183072
:101CC000FFF750FC2800FFF74DFC0F4BE06A1A6845
:101CD000904200D9186070430C4B29001818FFF788
:101CE0001EFC0B4BE26A1B68DB6A9A42C4D3054BAD
:101CF0001F60C1E7E00C0020D40C0020200D002064
:101D0000DC0C0020640D0020E80C0020480C0020B2
:101D10003C0C002070B505000C00002801D172B603
:101D2000FEE7002901D172B6FEE7124B1E68002EB5
:101D300001D072B6FEE7FFF7F9FE0F4B2A6818686C
:101D4000A418904205D2A24206D9A042B6417642DA
:101D500002E00126A242F8D92C60002E03D0201AFE
:101D60000021FFF7BDFDFFF76DFF002801D1FFF750
:101D700043FC70BDE00C0020600D002070B5154CD8
:101D80002368002B06D1144B1B68012BF7D9FFF7F2
:101D900033FCF4E7FFF7CAFE104D2E68FFF752FF41
:101DA000002EECD0FFF734FCEB68DD68281DFFF750
:101DB000D9FB0B4A1368013B13602368013B236086
:101DC000FFF732FC286BFFF753FD2800FFF750FDAB
:101DD000D5E7C046D80C0020480C00204C0D002050
:101DE000D40C0020154B30B51A68154B002A02D0D0
:101DF00001221A6030BD142412481A600268124988
:101E0000230053435D58002D12D0CC186568083369
:101E10006D68CB1865609D4201D16B6863601423C7
:101E20005343C9184B68D968084B19600260E1E751
:101E3000002A01D172B6FEE7013AE1E7E00C00208A
:101E4000640D0020E80C0020480C00203C0C002011
:101E5000054B01201B68002B04D0044B186843423B
:101E6000584140007047C046340D0020E00C00206F
:101E700010B500F04FFA80210A488901FEF748FBAF
:101E80000100094800F07BF8084B1A6801321A601B
:101E90001968074A914204D900221A60054B0132A1
:101EA0001A7010BD00080048900D0020680D002039
:101EB000102700006C0D002010B5021E00D001227A
:101EC00090202021C005FEF729FB10BD10B5021E91
:101ED00000D0012290201021C005FEF71FFB10BD8D
:101EE00007B56A460B00D11D0B70FA2301225B0077
:101EF0000148FFF789F907BDC40E0020024B0233E9
:101F0000DB7F037000207047A40F002070B5050030
:101F100008000C00FEF7F8F8FA2382B25B002800F4
:101F20002100FFF771F970BD0200EC321278030056
:101F300012090020052A11D11A00EE32117801325F
:101F4000127809020A439A21002089008A4205D9A1
:101F5000E833196804308A4200D01A607047C9B269
:101F6000531F017159424B41063ADBB24370531E75
:101F70009A410023D2B242708370C3707047437895
:101F8000002B01D0002904D04378002B25D1002953
:101F900023D04379DBB25A1CD2B242710279934208
:101FA00018D34378002B06D0002904D10323837172
:101FB000023B8370C1704378DBB2002B06D100294D
:101FC00004D002228271013AC270837000234170F2
:101FD0004371704704238371FBE78171F9E770B5A2
:101FE00005000C002178002900D170BD0020AB68ED
:101FF00098470134F6E770B5642504002A000021F3
:10200000143000F0FAFB20002A000021783000F0A4
:10201000F4FB22000023DC321370DE345370FF33F4
:10202000237070BD70B5642504008360049B01605B
:10203000C360069B426003612A000021143000F057
:10204000DCFB20002A000021783000F0D6FB2300C2
:102050000020DC3318705870059BE034236070BD9D
:1020600010B5040000202368984723680120984792
:1020700063680120984710BD73B56B460400DD1DF1
:102080002800E36898472000DC300178C9B20029B5
:102090001AD12300DD331A782D78D2B2561CF6B24D
:1020A000A2181E7015751A78622A00D919700021BD
:1020B0001A78A21811750D2D06D1E43422788A42BF
:1020C00003D11A700123037073BD2170FCE70F2345
:1020D000034018003030392801D9373318007047D1
:1020E000F0B5050016008DB002911922002105A857
:1020F000039300F082FB2800FFF77DFF341C0C2EB9
:1021000000D90C2400266300DBB205AAD318013CD9
:102110001E7064B2631C16D11B492800FFF75FFFD5
:1021200005A92800FFF75BFF039B002B22D117496D
:102130002800FFF754FF280005A9783000F065FB60
:1021400002200DB0F0BD029B1F5DF3B23809019370
:10215000FFF7BDFF05AB98553800FFF7B8FF019BAF
:1021600005AA01335BB2D054019B013C9E1C64B2B2
:1021700076B2CFE706492800FFF731FF2B00012296
:10218000E4331A70D7E7C0465D28000866280008C7
:1021900064280008F0B589B01422002103A800F0DB
:1021A0002CFB8020264BC0035969902501435961BF
:1021B0005A69ED05024080200092009A5969800218
:1021C0000143596180215A69C90202400192019A72
:1021D0005A691C4E0A435A615B6928000B400293FE
:1021E00001223021029BFEF799F9002230000221E2
:1021F000FEF794F900243023012703A92800039354
:10220000049705940694FEF7D3F8022330000326C2
:1022100003A90393049705940694FEF7C9F803A94C
:102220000948039604960594FEF7C2F8074B03A9E4
:102230002800039304960594FEF7BAF809B0F0BDA0
:10224000001002400004004800140048C260000072
:102250002023024A11880B4313807047980D0020F9
:102260000423024A11680B4313607047007000405A
:1022700007B58020054A4005D1690143D161D36982
:1022800003400193019BFEF757F907BD0010024080
:1022900010B5040086B01422002101A800F0ADFAA8
:1022A000002201A92000FEF705FD06B010BD0000C8
:1022B0000B480C4B10B5036096239B0143600C2226
:1022C000002342618360C36003618361C361036271
:1022D0004362FEF72BFF002801D000F05BF910BD30
:1022E000340F002000440040064B026810B59A42AB
:1022F00007D10548FFF7C0FE012204490448FEF754
:10230000B1FD10BD00380140AC0D0020C50F00200C
:10231000C40E0020024A1368013313607047C046A0
:10232000880D002010B5102496B0302200210AA894
:1023300000F063FA2200002101A800F05EFA1422E6
:10234000002105A800F059FA0A230AA80A93093BBC
:102350000D930E941193FEF7FFF8002801D000F0C2
:1023600019F90021072301A8019302910391049117
:10237000FEF70AFB002801D000F00CF9074B05A876
:1023800005930023079380239B000693FEF7A8FB89
:10239000002801D000F0FEF816B010BD01000100C9
:1023A00013B5FFF7CBFBFA2401906400210001A8CC
:1023B000FFF7B0FC02490348FFF7A8FDF6E7C04667
:1023C00068280008340F002013B5FFF7B7FBC824B6
:1023D00001906400210001A8FFF79CFC024903481A
:1023E000FFF794FDF6E7C04674280008340F00207C
:1023F0002023F0B54C4A87B011884C4E0B43138014
:102400004B4B5B6A002B03DA4A493000FFF77EFD35
:10241000FDF734FFFFF786FFFFF7BCFEFFF748FF2D
:10242000012245494548FEF71DFD06222821444862
:10243000FFF795FD002501278022424C2B0021004B
:102440005200019500974048FFF782FA8022210050
:102450002B005200019500973C48FFF779FA3C4B5E
:102460003C4C02933C4B3D4A01933D4B3D4900930C
:1024700020003D4BFFF7D6FD2300DE33187020000F
:10248000FFF7EEFD39493000FFF740FD80204000A6
:10249000FEF74AF8FFF728F8059535493000FFF7B1
:1024A00035FD344D344F002239002800FEF77EFC04
:1024B000002232492800FEF7A3FC2800FFF7E8FEBF
:1024C000002239002800FEF7F5FB28002500DC3546
:1024D000FFF7C6FEFFF7CCFE2B78002BDDD0284F90
:1024E0003800FDF711FEFA2382B239005B0030009C
:1024F000FEF78AFE6B467C221B7D22492B70224B05
:1025000020008B60214B4B60CB7893431A0008234B
:102510001343CB700A881E4B13430B8018220023F1
:10252000FFF7DEFDB9E7C046980D0020340F00200C
:102530000010024082280008C50F0020C40E0020B1
:10254000900D002093280008A1230008C92300084B
:10255000291F0008AC0D0020004BE236CD1E0008FC
:10256000FD1E0008B91E0008E11E00089B28000897
:1025700068280008A40E0020740D00206D0D0020B6
:10258000C00D0020A00D00207B14C640333397C23D
:10259000FF0F00007047000007B501200B4B996941
:1025A0000143996180219A69490502400092009A8D
:1025B000DA6903380A43DA61DB6900220B400193D0
:1025C0000321019BFDF778FE07BDC04600100240C5
:1025D00010B504008AB01422002105A800F00DF9FE
:1025E0002368284A93422AD18020274BC001996949
:1025F00003240143996180219A6989020240019272
:10260000019A5A6990200A435A615B69C0050B40E0
:102610000293029BC023DB000593022305A90693C6
:10262000013B09930894FDF7C3FE1B200022210003
:10263000FDF742FE1B20FDF76FFE0AB010BD134AE6
:102640009342FAD18022104B9202D9699020114313
:10265000D961D969C00511400391039959691143A2
:1026600059615B6905A91A400492049B0C230593E8
:102670000A3B069301330893023B0993FDF798FE4A
:10268000DBE7C04600380140001002400044004033
:102690007047FEE710B5FDF701FEFEF72AFFFDF7D4
:1026A0005FFE10BD10B50248FEF7A6FA10BDC04689
:1026B000A40E002010B50248FEF78AFE10BDC046E9
:1026C000C40E00200121134B13481A680A431A60F4
:1026D0005A6802405A601A68104802401A601A6824
:1026E0000F4802401A605A680E4802400F205A6094
:1026F000DA6A8243DA621A6B0B4802401A6380225C
:10270000186B02431A635A6B8A435A6300229A6019
:102710007047C046001002400CB8FF08FFFFF6FEED
:10272000FFFFFBFFFFFFC0FF6CFEFFFF1348854666
:1027300004200168090E1F22914205D11048012191
:1027400001601048002101600F481049104A002321
:1027500002E0D458C4500433C4188C42F9D30D4A53
:102760000D4C002301E013600432A242FBD3FFF7BB
:10277000A9FF00F015F8FFF73BFEFEE70018002068
:102780001810024000000140000000200800002056
:10279000D028000808000020C80F0020FEE7000035
:1027A00070B500260C4D0D4C641BA410A64209D137
:1027B000002600F033F80A4D0A4C641BA410A64210
:1027C00005D170BDB300EB5898470136EEE7B30072
:1027D000EB5898470136F2E7C8280008C8280008D7
:1027E000C8280008CC280008002310B59A4200D160
:1027F00010BDCC5CC4540133F8E703008218934247
:1028000000D1704719700133F9E7031C0A780131D0
:102810001A700133002AF9D170470000F8B5C0469C
:10282000F8BC08BC9E467047F8B5C046F8BC08BC6A
:042830009E46704709
:1028340002030405060708090A0B0C0D0E0F1010FD
:102844000102030405060708090A0B0C0D0E0F10FC
:102854000004080249444C450041542453463D00B9
:102864002C310D00434F524520534C4545500D002B
:10287400486F6C61206D756E646F200D0A0057619E
:102884006B6575702054696D656F75740D0A00541D
:1028940061736B46534D00496E6963696F206465CB
:1028A4006C2073697374656D610D0A00000000008B
:1028B40000000000010203040607080900000000EC
:0428C4000102030406
:0428C800E90000081B
:0428CC00C10000083F
:0828D000AAAAAAAA00127A00CC
:040000050800272D9B
:00000001FF
