:020000040800F2
:1000000000180020CD3100082531000827310008F4
:1000100000000000000000000000000000000000E0
:10002000000000000000000000000000B5150008FE
:10003000000000000000000021160008293100081F
:100040003D32000800000000353100083D32000854
:100050003D3200083D3200083D3200083D320008C4
:10006000000000003D3200083D3200083D3200082B
:100070003D3200083D3200083D320008000000001B
:100080003D32000800000000000000003D32000882
:10009000000000003D3200083D3200083D320008FB
:1000A000000000003D32000800000000453100085B
:1000B0003D32000800000000000000003D32000852
:1000C00010B5064C2378002B07D1054B002B02D02E
:1000D000044800E000BF0123237010BDDC010020B4
:1000E00000000000FC3C0008044B10B5002B03D0BE
:1000F0000349044800E000BF10BDC04600000000F6
:10010000E0010020FC3C00080023C25C0133002A0F
:10011000FBD1581E7047000002B4714649084900DF
:10012000095649008E4402BC7047C04602B471466D
:1001300049084900095C49008E4402BC7047C0462A
:10014000002243088B4274D303098B425FD3030A16
:100150008B4244D3030B8B4228D3030C8B420DD329
:10016000FF22090212BA030C8B4202D312120902B7
:1001700065D0030B8B4219D300E0090AC30B8B42F5
:1001800001D3CB03C01A5241830B8B4201D38B03A3
:10019000C01A5241430B8B4201D34B03C01A524148
:1001A000030B8B4201D30B03C01A5241C30A8B428B
:1001B00001D3CB02C01A5241830A8B4201D38B0276
:1001C000C01A5241430A8B4201D34B02C01A52411A
:1001D000030A8B4201D30B02C01A5241CDD2C3098C
:1001E0008B4201D3CB01C01A524183098B4201D308
:1001F0008B01C01A524143098B4201D34B01C01AF3
:10020000524103098B4201D30B01C01A5241C3086A
:100210008B4201D3CB00C01A524183088B4201D3D9
:100220008B00C01A524143088B4201D34B00C01AC5
:100230005241411A00D20146524110467047FFE731
:1002400001B5002000F006F802BDC0460029F7D035
:1002500076E770477047C04610B5040000F0FCFB1D
:10026000FA218900FFF76CFF00F060F801200022FE
:100270002100404200F020F8002010BD1023064A63
:1002800010B5116803200B431360FFF7E5FF02F080
:10029000B5FE002010BDC04600200240024A13688F
:1002A000013313607047C046C80F0020014B186827
:1002B0007047C046C80F002070B58901002814DAC5
:1002C0000F23C0B20340083B114A9B089B009B18B8
:1002D000032210409040FC321500114085408140BF
:1002E000DC69AC432143D96170BD032583082840F4
:1002F000A840FC352E00074A9B009B18C022864070
:100300002940814092009C58B44321439950EBE727
:1003100000ED00E000E100E01F2318401E3B834099
:10032000014A13607047C04600E100E0094A431EDD
:10033000012093420DD8C021074A08485360036A40
:1003400009061B021B0A0B4303620020072390606F
:1003500013607047FFFFFF0010E000E000ED00E0D9
:10036000F0B50B6887B0029300230191029ADA403E
:1003700001D107B0F0BD01229A4003920399029A7D
:100380000A40009200D18CE0019A102152681600B8
:100390008E43022E0ED107251D40AD000139A94024
:1003A000DC08A4000419276A8F4301990969A94050
:1003B0000F43276203245F00BC40E4430568013E0D
:1003C0002540AC4603251540BD4061460D43056000
:1003D000012E0FD801998668CD682640BD4035436F
:1003E00085604668039915098E4301210D409D40A3
:1003F00035434560C56801992C408D688021BD401A
:1004000049052C43C4600A424BD00121264C0326E7
:10041000A5691E400D43A561A4699D080C40059483
:10042000059C0F242149AD00B6006D18B440902101
:10043000AF68C905A743002488420CD01C49013489
:10044000884208D01B490134884204D01A49033439
:10045000884200D1023CB44000993C430E00AC609D
:10046000164CCD4327683E43D10301D43E002E40B5
:1004700026606768009E3E43910301D43E002E40F3
:100480006660A768009E3E43D10201D43E002E4024
:10049000A660E668009F3743920201D42E403700E1
:1004A000E760013362E7C0460010024000000140EF
:1004B0000004004800080048000C00480004014007
:1004C000002A01D0816170478162FCE7024A5368CB
:1004D000184350607047C046007000400223054A30
:1004E00011680B4313600423034A11690B43136122
:1004F00030BF70470070004000ED00E0F0B50368C9
:1005000085B00500DB072FD42B689B0700D586E05C
:100510002B681B0700D5C6E02B685B0700D5E9E018
:100520002B68DB061AD56A69BA4C0423012A00D06D
:1005300055E1616B02260B436363636B1A4362638D
:10054000FFF7B4FE0700636B334200D140E1F821AE
:10055000626BAB698A43DB0013436363296A00293A
:1005600000D063E1002018E00C21AA4C62680A4028
:10057000042A0BD063680B40082B10D1C02263689B
:100580005202134080225202934208D123689B03F7
:10059000BAD56B68002BB7D1012005B0F0BD6B68F0
:1005A000012B13D1802322685B0213432360FFF7E2
:1005B0007DFE80260700B60223683342A4D1FFF7F0
:1005C00075FEC01B6428F7D90320E6E7002B16D17F
:1005D0002368914A80261340236023688F4AB6021D
:1005E00013402360FFF762FE07002368334200D107
:1005F0008AE7FFF75BFEC01B6428F6D9E4E7052B0A
:1006000005D180232268DB0213432360CAE72368F5
:10061000814A134023602368804A1340C6E70C22B6
:100620007C4C636813420BD063681340082B15D1D0
:10063000C0226368520213408022120293420DD1FD
:1006400023689B0702D5EB68012BA5D1F82122680E
:100650002B698A43DB001343236059E7EA680123CF
:10066000002A0FD02268022613432360FFF71EFEE4
:10067000070023683342E9D1FFF718FEC01B0228A8
:10068000F7D9A1E7226802269A432260FFF70EFEFF
:1006900007002368334200D13AE7FFF707FEC01B8B
:1006A0000228F6D990E7EA6901235A4C002A10D0B3
:1006B000626A022613436362FFF7F8FD0700636A6C
:1006C000334200D028E7FFF7F1FDC01B0228F6D91E
:1006D0007AE7626A02269A436262FFF7E7FD070043
:1006E000636A334200D117E7FFF7E0FDC01B022821
:1006F000F6D969E780220021464C5205E369009152
:10070000134208D1E3691343E361E36913400393A0
:10071000039B012300938027414E7F0033683B42B7
:1007200006D0AB68012B13D1226A1343236230E059
:1007300033683B433360FFF7B9FD019033683B42B8
:10074000EFD1FFF7B3FD019BC01A6428F6D93BE750
:100750000122002B14D1236A022793432362236AC8
:10076000033293432362FFF7A1FD0600236A3B4255
:1007700025D0FFF79BFD2B4B801B9842F6D923E732
:10078000052B0BD1216A013B0B432362236A1A43D9
:100790002262FFF78BFD022706000DE0236A9343D8
:1007A00004222362236A9343C0E7FFF77FFD1D4BBA
:1007B000801B984200D907E7236A3B42F5D0009B93
:1007C000012B00D0ACE6E369174A1340E361A7E6CA
:1007D000FFF76CFDC01B022800D8B4E6F4E6053232
:1007E00003D1626B9A436263B1E6626B02261343E4
:1007F00001226363636B93436363FFF757FD070055
:10080000636B334200D1A9E6FFF750FDC01B0228FD
:10081000F6D9D9E600100240FFFFFEFFFFFFFBFF05
:100820000070004088130000FFFFFFEF0C22264CF1
:10083000012063681340082B00D1AEE62368234AE9
:100840001340236002292FD1FFF730FD80260700D7
:10085000B6042368334221D10F22E36A9343EA6A44
:100860001343E362696AAB6A62680B4318498025E7
:100870000A4013436360802322685B0413432360B0
:10088000FFF714FD0600AD0423682B4200D069E693
:10089000FFF70CFD801B0228F6D995E6FFF706FD51
:1008A000C01B0228D5D98FE6FFF700FD8025060082
:1008B000AD0423682B4200D154E6FFF7F7FC801B00
:1008C0000228F6D980E6C04600100240FFFFFFFE76
:1008D000FF7FC2FF30B5124D89B010222900684653
:1008E00002F0D2FC290004AC10311022200002F0EA
:1008F000CBFC0C220B494B681A40082A0DD1CA6A5E
:100900000F2168469B0C0B400A40C55CA15C064861
:10091000FFF716FC684309B030BD0348FBE7C0464B
:10092000143D00080010024000127A00F7B50122C1
:10093000434C060023680F0013408B421CD33268DF
:10094000930723D4D30729D4012322681A4097425E
:1009500067D333683B4C5B076AD4FFF7BBFF636820
:10096000394A1B061B0FD35CD840384B1860032054
:10097000FFF772FC002008E0236893430B432360D9
:10098000236813409942DAD00120FEBDF0202D49A2
:100990004B688343B06803434B60D3E7294D7268CB
:1009A0002B68012A1AD19B03EED503216B688B4378
:1009B00013436B60FFF77AFC73680190012B15D12C
:1009C0000C226B681340042BBED0FFF76FFC019B19
:1009D000C01A1F4B9842F3D90320D6E7022A02D14E
:1009E0009B01E2D4D0E79B07DFD4CDE7022B12D0E6
:1009F0000C226B681342A7D0FFF758FC019BC01A6A
:100A0000134B9842F4D9E7E7FFF750FC019BC01A5B
:100A10000F4B9842E0D80C226B681340082BF3D19F
:100A200092E722689A43226022681A42ACD190E78A
:100A30006368084A1340F268134363608DE7C04659
:100A40000020024000100240133E00080800002071
:100A500088130000FFF8FFFF014B18687047C0467D
:100A600008000020044B054A5B685B055B0FD35C04
:100A7000034A1068D840704700100240233E000827
:100A800008000020F0B5036885B00500DB0328D519
:100A9000802200213B4C5205E3690091134208D1AA
:100AA000E3691343E361E36913400393039B012369
:100AB00000938027344E7F0033683B422FD0C02202
:100AC000236A92001340314E3BD1236A1E406B686B
:100AD0001E43009B2662012B03D1E3692C4A13407D
:100AE000E3612A68D30706D5032026490B6B8343AD
:100AF000A86803430B63930606D5102021490B6BAE
:100B00008343E86803430B630020930317D58021D8
:100B10001C4A136B8B4329690B4313630FE0336843
:100B20003B433360FFF7C2FB019033683B42C6D1C1
:100B3000FFF7BCFB019BC01A6428F6D9032005B05F
:100B4000F0BD69680A409342BFD08023226A206AC0
:100B500011005B0203432362236A0E4831400340C5
:100B600023622162D307B0D5FFF7A0FB0700022262
:100B7000236A1342A9D1FFF799FB074BC01B984288
:100B8000F5D9DBE70010024000700040FFFCFFFFDA
:100B9000FFFFFFEFFFFFFEFF88130000036810B5A3
:100BA0009A680400D2040AD5DB68DB0507D501F09A
:100BB0003DFF2168054BCA68D2B21343CB60802247
:100BC000034B92025A610123637710BD7FFEFFFF42
:100BD00000040140A0210268F8B5D36804008B43EB
:100BE000D360FFF763FBFA2706002025BF002368C8
:100BF000DB682B4201D00020F8BDFFF757FB801BBC
:100C0000B842F4D90320F7E7F8B54024036805009B
:100C1000DA68224201D00020F8BD01225242DA6097
:100C2000FFF744FBFA270600BF002B68DB6823426E
:100C3000F1D1FFF73BFB801BB842F6D90320EBE76D
:100C400070B504000125002818D0437FDBB2002BCB
:100C500002D1037702F0EEF90223CA2263772368F8
:100C600020005A62773A5A62FFF7CEFF2368051ECA
:100C700006D0FF225A62042301256377280070BD45
:100C80009A68174920690A409A6062689968024325
:100C9000606902430A439A60E2681A61A2681969AE
:100CA00012040A4380211A61DA688A43DA609B6879
:100CB0009B0606D42000FFF78DFF002801D0236893
:100CC000D7E7236807491A6C0A401A641A6CA169AD
:100CD0000A431A64FF225A6201236377CEE7C046B3
:100CE000BFFF8FFFFFFFFBFF0023092803D81B0175
:100CF0001843C0B270470A380133C0B2F5E70000AC
:100D00000223F7B50D00017F04001F00012932D036
:100D100001214377036801779B683F3128786E781B
:100D2000AF780B40002A28D1002B00D1EB70FFF7E1
:100D3000DBFF01903000FFF7D7FF06003800FFF718
:100D4000D3FFEF78019B3F040743180407433602A3
:100D5000CA22236820005A62773A5A62FFF754FF8A
:100D60003E432368071E12D0FF225A620423637792
:100D70000023237701273800FEBD002B00D1EB7044
:100D80000004360206433743EE783604E0E71448A1
:100D9000144906401E609A6828690A409A60EA6809
:100DA000996802430A4380219A60DA688A43DA60CC
:100DB0009B689B060BD42000FFF70CFF002806D091
:100DC000FF2223685A62042327776377D2E7FF2242
:100DD00023685A620123637700232377CBE7C04659
:100DE0007F7F7F00FFFFFBFF0223F7B50D00017F30
:100DF00004001E00012931D00121437701776B786F
:100E0000E878AF782E78002A48D11032134202D009
:100E100093430A336B70FFF767FF01906878FFF721
:100E200063FF05003800FFF75FFF019B7603304347
:100E30001E0406432D023543CA22236820005A624D
:100E4000773A5A62FFF7E0FE2368061E08D0FF22B9
:100E50005A62042363770023237701263000FEBD06
:100E60008021124F3D405D60DA688A43DA609B68FA
:100E70009B060BD42000FFF7ADFE002806D0FF2212
:100E800023685A62042326776377E6E7FF22236804
:100E90005A620123637700232377DFE700041B02F4
:100EA00003431F4375033D43C6E7C0463FFFFF00B2
:100EB0000223F0B50C00017F050085B01800012960
:100EC00000D182E001216B772B6829779B683F3145
:100ED00020786678A7780B40002A57D1002B00D1E4
:100EE000E370FFF701FF01903000FFF7FDFE060001
:100EF0003800FFF7F9FE0700631CD87FFFF7F4FE08
:100F00006269E36936021343E278120413431F4314
:100F1000019B1B041F433E43CA2263682C49019373
:100F2000A369000602932B6806435A62773A5A6215
:100F30009A6801270A409A60D968264AC9B20A43CA
:100F4000DA60FFF7B3F903902B68DC683C402ED0E1
:100F50000299019ADE610A435A648022996852001C
:100F60000A439A608022996852010A4380219A605C
:100F7000194A890210680843106090680143916023
:100F80000020FF225A626F7728771EE0002B00D1E5
:100F9000E370E3696269000413431F430743E07889
:100FA000360200043E43631C0643D87FB4E7FFF7D4
:100FB0007DF9039BC01AFA239B009842C4D9FF22F3
:100FC00003202B685A6268772C7705B0F0BDC046C5
:100FD000FFFEFFFF7FFEFFFF00040140F0B50500AC
:100FE0006A352C7803000220202C38D101380029E2
:100FF00035D0002A33D080249E686401A64204D1F3
:101000001C69002C01D1014229D11C0068342778C9
:101010000220012F23D00138207059651900583162
:101020000A804A808022520196421BD11A69002A06
:1010300016D114491A005C32118000222221DA668E
:101040001B6829709968227001320A439A609022C5
:10105000196852000A431A600B4B1868C0B2F0BD01
:10106000FF21E7E7002E04D11A69002AF8D07F217A
:10107000E0E7802252059642DFD11A69002AF6D0B5
:101080003F21D7E7FF010000AC0F002070B504003E
:101090000568C269836800692968034360693F4E37
:1010A00003433F48134301400B432B606B683D49AA
:1010B000206A0B40E1680B436B60A369A968034396
:1010C000394801400B43AB6080231B02B54210D16D
:1010D00003203649096B01403548405C9A4213D0E1
:1010E000082858D8FFF722F8375742574B57575719
:1010F000500030498D424CD19A422CD1FFF7B2FCBE
:10110000636840005B080BE0082821D8FFF704F86B
:10111000F6200520182020201B0063685808264B65
:10112000C0186168FFF70CF883B200200F22190085
:1011300091430A001B0721685B0F1343CB6070BD0E
:10114000FFF7C8FBDCE76368580880235B02E7E72A
:1011500001200023EAE7FFF785FC61684B081818B7
:10116000FEF7EEFF80B2E8600020E8E76168134B0D
:101170004808C018FEF7E4FF80B2F060F4E7FFF71C
:10118000A9FB61684B08F4E7802361681B024808EB
:10119000EFE79A42DCD00120D1E7C0460038014099
:1011A000F369FFEFFFCFFFFFFFF4FFFF00100240E6
:1011B0004C3D0008004400400024F40000127A0076
:1011C000436A30B5DA0706D50168284C4A682240E0
:1011D000846A22434A609A0706D50168244C4A680B
:1011E0002240C46A22434A605A0706D50168214C4E
:1011F0004A682240046B22434A601A0706D50168F8
:101200001D4C4A682240446B22434A60DA0606D5E8
:1012100001681A4C8A682240846B22438A609A06CD
:1012200006D50168164C8A682240C46B22438A6046
:101230005A0610D50168134D4A68046C2A402243AF
:101240004A6080225203944205D14A680E4C2240E3
:10125000446C22434A601B0606D502680B4953685A
:101260000B40816C0B43536030BDC046FFFFFDFF58
:10127000FFFFFEFFFFFFFBFFFF7FFFFFFFEFFFFF13
:10128000FFDFFFFFFFFFEFFFFFFF9FFFFFFFF7FF06
:1012900070B5041E01D1012070BD050069352B78A1
:1012A000DBB2002B04D102006832137001F0DAFEC9
:1012B0002423012122682B70136820008B431360C4
:1012C000FFF7E4FE0128E6D0636A002B02D020007D
:1012D000FFF776FF23680B495A6800200A4008216F
:1012E0005A609A688A439A60012219680A431A6010
:1012F00022002023E0666A3268342B70137020705D
:10130000CAE7C046FFF7FFFFF8B504000E0015005E
:101310001F002268D36933409B1B59424B41AB42AB
:1013200001D0002018E0069B0133F3D0069B002B70
:1013300013D123680C491A6803200A401A609A687E
:10134000A331FF318A439A6022002023693213704F
:101350005370002368342370F8BDFEF7A7FF069B87
:10136000C01B8342D5D2E4E75FFEFFFFF0B5070064
:1013700085B0039369373B7804000D001600022006
:10138000202B46D10138002943D0002A41D08023A8
:10139000A2685B019A4204D12369002B01D101426A
:1013A00037D1230068331A780220012A31D0012274
:1013B0001A700023E36621333B70FEF777FF2300AA
:1013C00050331E805E8080260290760121005231CB
:1013D0000A8892B2002A0DD1039B4021009320007D
:1013E000029BFFF791FF002812D1202368343B7045
:1013F00020700EE00B880022013B9BB20B80039B08
:10140000802100932000029BFFF77EFF002802D07E
:10141000032005B0F0BDA3682268B34208D1236958
:10142000002B05D12B880235DB05DB0D1385CDE7BD
:101430002B7801351385C9E7020070B56A3211783F
:10144000036822292DD1010080245C310D88998CFC
:10145000640129408568436DA5421ED10469002CB2
:101460001BD1198002334365010000245A310B88D7
:10147000013B9BB20B80A3420DD103680C4D196850
:101480002940196099682335FF35A94399602023C5
:10149000137001F0CBFB200070BD5C1C446519701B
:1014A000E2E70822996902240A439A61F3E7C046F9
:1014B000DFFEFFFF10B500F073FF012801D000F040
:1014C000D1F810BD0300012208334360C3600361FB
:1014D000002352428260036070470023036170471B
:1014E00043689A684B608A609A68516099600368A3
:1014F000086101330360704703000A6830B50833A0
:10150000541C0BD103695A684A6091608B60596022
:10151000036808610133036030BD23005C682568FF
:10152000AA42FAD2EFE74168826803698A6082685A
:1015300051605968884200D15A60002202611A68DD
:10154000501E186070470000034B1B68013301D028
:1015500072B6FEE772B6FEE7000000200000000051
:101560000B4A13681868203080F30988022080F342
:101570001488BFF36F8F3FBCAE4608BC04BC62B694
:101580001847C046C046C046C046C046C046C046D2
:10159000700E002010B58024031F64041C60043BFF
:1015A00019600349043B1960143B40381A6010BDB0
:1015B00049150008704700008022044B52051A604C
:1015C000BFF34F8FBFF36F8F7047C04604ED00E04D
:1015D00072B6044A136801331360BFF34F8FBFF331
:1015E0006F8F704700000020054A1368002B01D15F
:1015F00072B6FEE7013B1360002B00D162B6704764
:1016000000000020EFF3108072B67047002080F3D6
:10161000108870470000000000000000000000007B
:10162000EFF309800E4B1A6820381060F0C0444672
:101630004D4656465F46F0C008B572B600F0E6FD6E
:1016400062B60CBC116808681030F0C8A046A94604
:10165000B246BB4680F309882038F0C81847C04618
:10166000700E002010B5FFF7CDFF040000F09AFCCB
:10167000002803D08022034B52051A602000FFF798
:10168000C6FF10BD04ED00E0FA21064B10B5186846
:101690008900FEF755FD0722034B01381860034B04
:1016A0001A6010BD0800002014E000E010E000E027
:1016B000FF220A4B1204196810B50A431A60FF2270
:1016C000196812060A431A60FFF7DEFF0022044B76
:1016D0001A60FFF745FFFFF737FFC04620ED00E037
:1016E0000000002010B50F4B1A68824218D35C68C6
:1016F0001919884203D141681800091959604168D5
:101700004418A24207D1084C2468A24203D054686E
:101710001268611841600260984200D0186010BDE4
:101720001300E1E7680E0020F8010020F8B504007E
:1017300000F030FC384A39481368002B1ED1384974
:101740000733194236D0CD189D43C6231B01C91853
:101750004B1B29000025334ECB18756031600726DE
:10176000083BB3431D605D605D1A136028C12E4BBA
:101770001D602E4B1D6080231B06036006683442EB
:1017800016D1002C14D02300072108330B4201D0BE
:101790008B430833002B0BD024490D68AB4207D88C
:1017A00020490C686068834207D8126894420BD1C4
:1017B000002528E0C6231B01CCE72768BC46002F84
:1017C000F3D021006446EDE70A68170022680A603A
:1017D000C21A102A08D9E018410701D072B6FEE7F4
:1017E00042606360FFF77EFF6368104AED1A156080
:1017F0000D4A11688D4200D215601E433D00002342
:1018000008356660236000F04BFC6B0701D072B6B0
:10181000FEE72800F8BDC046F80100205C0E00205D
:10182000FC010020680E0020640E0020600E0020E5
:1018300010B500281BD00E4A08384368126804000F
:101840001A4201D172B6FEE70168002901D072B6D2
:10185000FEE79343436000F09DFB064A636811680E
:1018600020005B181360FFF73DFF00F019FC10BD6E
:101870005C0E0020600E002070B51600026C0400A3
:10188000856B002A0AD106681000002E03D160681B
:1018900000F0CCFD66600135A56370BD002E0DD152
:1018A000806801F0F1FCA368226C30009B1862682C
:1018B000A3609342EFD32368A360ECE7C06801F014
:1018C000E3FC236CE2685B422168D218E2608A4242
:1018D00002D26268D318E3600020022EDBD12B0015
:1018E0005A1E9341ED1AD6E703001A6C10B5080092
:1018F000002A0AD0D9685C688918D960A14201D34E
:101900001968D960D96801F0BFFC10BD70B5050039
:101910002E004536FFF75CFE347864B2002C10DCF4
:10192000FF2333702E004436FFF75EFEFFF750FEB4
:10193000347864B2002C11DCFF233370FFF754FEBF
:1019400070BD6B6A002BEBD02800243000F0A6FCA1
:10195000002801D000F01EFD013CDEE72B69002BC2
:10196000EAD02800103000F099FC002801D000F0E7
:1019700011FD013CDDE770B504000D00002801D128
:1019800072B6FEE7FFF724FE216CE36B22684B433F
:10199000D0185B1AD318E36023006060A2600020B7
:1019A000FF224433A0631A705A7085420ED1236916
:1019B000834207D02000103000F070FC002801D0D6
:1019C000FFF7FAFDFFF710FE012070BD2000103078
:1019D000FFF778FD20002430FFF774FDF2E770B5C3
:1019E00006000D00002801D172B6FEE70800704322
:1019F0004830FFF79BFE041E08D0002D08D1206060
:101A0000E663256401212000FFF7B5FF200070BDCB
:101A1000030048330360F3E7F0B585B0040000919C
:101A200001921D00002801D172B6FEE7009B002B39
:101A300000D06FE0036C002B00D16BE072B6FEE7C4
:101A4000019E002E03D1FFF7CFFD002054E0002FB0
:101A500002D102A800F05EFCFFF7C6FD00F09AFA82
:101A6000FFF7B6FD2200443213785BB2013301D197
:101A7000002313702200453213785BB2013301D189
:101A800000231370FFF7B0FD01A902A800F052FC7B
:101A9000002839D1FFF79CFDA76BE66BFFF7A4FD8B
:101AA000B7422BD120000199103000F0E5FB200057
:101AB000FFF72CFF00F0F4FA002801D1FFF77CFDBE
:101AC0000127FFF785FDA36BE26B934201D3022D43
:101AD000B6D12A0000992000FFF7CEFE636A002BE2
:101AE00003D02000243000F0D9FB002801D0FFF7FC
:101AF00063FDFFF779FD012005B0F0BD2000FFF781
:101B000005FF00F0CDFADBE72000FFF7FFFE00F055
:101B1000C7FA9AE7022D02D1E36B012B09D100F03D
:101B20003FFC00270028CCD1019F002FC9D072B6FE
:101B3000FEE772B6FEE710B5020000210120FFF7B4
:101B40004EFF041E07D0002141600160C1600B0000
:101B50000A00FFF761FF200010BD70B504000E0001
:101B6000002801D172B6FEE7036C002B01D072B6DB
:101B7000FEE70368002B02D14368002B28D1FFF752
:101B800041FDA26BE36B05009A4201D3002416E0ED
:101B9000210045310B7801325BB2A2635A1C13D18C
:101BA000636A002B01D1012409E02000243000F0F9
:101BB00075FB0028F7D0002EF5D0012434602800F2
:101BC000FFF725FD200070BD01335BB20B70EAE723
:101BD00072B6FEE7F0B585B004000F0001920093E5
:101BE000002801D172B6FEE7002900D08EE0036C18
:101BF000002B00D18AE072B6FEE7636AE660002B34
:101C00006CD02000243063E0019D002D03D1FFF74C
:101C1000EBFC280065E0002E02D102A800F07AFB60
:101C2000FFF7E2FC00F0B6F9FFF7D2FC22004432E5
:101C300013785BB2013301D10023137022004532C7
:101C400013785BB2013301D100231370FFF7CCFC92
:101C500001A902A800F06EFB00284AD1FFF7B8FCEA
:101C6000A56BFFF7C1FC002D3DD12368002B06D1E9
:101C7000FFF7AEFC606800F0A3FBFFF7B5FC2000A7
:101C80000199243000F0F8FA2000FFF73FFE00F041
:101C900007FA002801D1FFF78FFC0126FFF798FC17
:101CA000A56B002DB0D039002000E668FFF71CFEC0
:101CB000009B002BA1D12368013DA563002B02D11D
:101CC00000F0EAFB60602369002B07D02000103091
:101CD00000F0E4FA002801D0FFF76EFCFFF784FC67
:101CE000012005B0F0BD2000FFF710FE00F0D8F98C
:101CF000D3E72000FFF70AFE00F0D2F9FFF768FCF7
:101D0000A56BFFF771FC002DC7D182E700F048FBFF
:101D100000260028C2D1019E002EBFD072B6FEE779
:101D2000074A13681968074B002903D10122524260
:101D30001A6070471268D268D2685268F8E7C046E5
:101D4000740E00204C0F0020F8B50400144B154D04
:101D50001E6828680F000430FFF7E5FB631C07D1FD
:101D6000002F05D0296810480431FFF7B9FBF8BDF2
:101D70002B6834195C60A64206D90C4B1868296898
:101D80000431FFF7B9FBF2E7094B18682968043101
:101D9000FFF7B2FB074B1A689442E8D21C60E6E7F3
:101DA000940F0020700E00206C0F0020780E002091
:101DB000740E00204C0F0020F0B5950085B0029005
:101DC00028000F000393FFF7B1FC061E00D18EE040
:101DD0005420FFF7ABFC041E00D185E00723043D2F
:101DE000066376199E43002300961A00F95C34328C
:101DF000A154FA5C002A02D00133102BF5D1230044
:101E000000250A9E43331D70062E00D90626231D89
:101E10001800E6626664A5640193FFF75EFB20008C
:101E20001830FFF75AFB07239E1B23005033246111
:101E3000A6616462E564039A1D7002990098FFF739
:101E4000A9FB0B9B2060002B00D01C60FFF7C0FBA0
:101E50002E4B2F4D1A6801321A602A68002A49D188
:101E60002C601B68012B1DD12A4E37008C373000A7
:101E70001436FFF727FBB742F9D1274E3000FFF7A2
:101E800021FB264F3800FFF71DFB2548FFF71AFB03
:101E90002448FFF717FB2448FFF714FB234B1E6071
:101EA000234B1F60234A136801331360224AE36AFD
:101EB00011688B4200D9136014205843154B0199C7
:101EC0001818FFF70DFBFFF78FFB1C4B01261B6853
:101ED000002B06D02B68DA6AE36A9A4201D2FFF738
:101EE0006BFB300005B0F0BD3000FFF7A1FC012610
:101EF0007642F6E7114B1B68002BD3D12B68E26AC0
:101F0000DB6A9342CED82C60CCE7C046080F002095
:101F1000700E00207C0E0020200F0020340F0020C7
:101F2000540F0020800F00206C0F0020740E002042
:101F3000780E0020180F00201C0F0020680F0020D2
:101F400013B500240D4B00940193402223000C494B
:101F50000C48FFF731FF01280BD172B601220A4B62
:101F600052421A60094B1860094B1C60FFF7A0FB36
:101F700013BD431CFCD172B6FEE7C046480F0020DB
:101F8000503D0008A52100084C0F0020680F0020DC
:101F9000940F0020024A1368013313607047C04653
:101FA000140F0020334BF7B51B68002B35D1324B93
:101FB0001C6801341C60002C11D1304B1A68126867
:101FC000002A01D072B6FEE72D4A19681068186021
:101FD00011602C4A136801331360FFF7A1FE2A4FEA
:101FE00000263B689C4207D3244B1A681268002ADB
:101FF00019D101235B423B60244B1B68DA6A14232E
:102000005343234AD358012B00D90126214B1B6887
:10201000002B00D001263000FEBD1F4A00261368A9
:1020200001331360F2E71B68DB68DD686B689C4274
:10203000E1D32B1D18000193FFF775FAAB6A002B53
:1020400003D028001830FFF76EFA144BE86A1A68BC
:10205000904200D91860142358430D4B291D1818BD
:10206000FFF73EFA094BEA6A1B68DB6A9A42BBD368
:102070000126B9E7140F0020940F0020740E0020F1
:10208000780E0020500F00204C0F0020700E002012
:102090007C0E0020980F0020100F00201C0F002045
:1020A000F8B52B4C2368002B01D172B6FEE7FFF781
:1020B0008FFA2368013B23602468002C04D000249D
:1020C000FFF792FA2000F8BD224B1B68002BF6D0D8
:1020D00014260127204B1A68002A1AD1002C01D09F
:1020E000FFF71EFE1D4D2C68002C0AD00126FFF7BD
:1020F00059FF002801D01A4B1E60013C002CF6D17C
:102100002C60174B1B68002BD9D0FFF755FA012420
:10211000D6E7DB68DC682000251D1830FFF703FADE
:102120002800FFF700FA0F4BE06A1A68904200D9C6
:10213000186070430C4B29001818FFF7D1F90B4BAE
:10214000E26A1B68DB6A9A42C4D3054B1F60C1E791
:10215000140F0020080F0020540F0020100F002043
:10216000980F00201C0F00207C0E0020700E002015
:1021700070B5041E02D1FFF71FFA70BD084B1D6831
:10218000002D01D072B6FEE7FFF704FF2900200002
:10219000FFF7DAFDFFF784FF0028EED1EBE7C0463A
:1021A000140F002070B5154C2368002B06D1144B7A
:1021B0001B68012BF7D9FFF7FFF9F4E7FFF7EAFEF9
:1021C000104D2E68FFF76CFF002EECD0FFF700FAE1
:1021D000EB68DD68281DFFF7A6F90B4A1368013B81
:1021E00013602368013B2360FFF7FEF9286BFFF7BC
:1021F0001FFB2800FFF71CFBD5E7C0460C0F002093
:102200007C0E0020800F0020080F0020154B30B5F9
:102210001A68154B002A02D001221A6030BD14241E
:1022200012481A6002681249230053435D58002D7A
:1022300012D0CC18656808336D68CB1865609D4274
:1022400001D16B68636014235343C9184B68D96884
:10225000084B19600260E1E7002A01D172B6FEE77F
:10226000013AE1E7140F0020980F00201C0F002016
:102270007C0E0020700E002010B50C00002801D14B
:1022800072B6FEE7044B19681831FFF735F90121E2
:102290002000FFF759FD10BD700E0020C36870B517
:1022A000DC68002C01D172B6FEE725001835280045
:1022B000FFF739F9114B1B68002B1BD1251D280096
:1022C000FFF731F90E4AE36A11688B4200D91360B7
:1022D0001420290043430B48C018FFF701F90A4BAB
:1022E000E26A1B680020DB6A9A4202D9074B013080
:1022F000186070BD29000648EFE7C046140F0020A3
:102300001C0F00207C0E0020700E0020980F002073
:10231000540F0020002801D172B6FEE7034B1B6862
:102320000360034B1B6843607047C046500F00209A
:10233000940F002070B504000D00002801D172B682
:10234000FEE7002901D172B6FEE7FFF741F90F4B16
:10235000002619682B685A1C13D00D4A266810688D
:102360006268864202D0012691420AD2881A01266A
:10237000834206D95B1A9B182B602000FFF7CAFF27
:102380000026FFF731F9300070BDC046940F0020E1
:10239000500F00200122014B1A607047980F002057
:1023A000054B01201B68002B04D0044B18684342E6
:1023B000584140007047C046680F0020140F0020AD
:1023C000F8B5041E26D0164FC16A3B68DB6A9942F5
:1023D00020D28369002B04DB07223B68DB6AD21A18
:1023E000826114234B430F4E6269F3189A4212D153
:1023F000251D2800FFF797F83B680B4ADB6A116838
:10240000E3628B4200D9136014205843290030182E
:10241000FFF766F8F8BD3B68DB6AE362FAE7C0469F
:10242000700E00207C0E00201C0F002070B5041ED2
:1024300001D1002070BD154B1B68984201D072B6C7
:10244000FEE7836C002B01D172B6FEE7C26A416CD5
:10245000013B83648A42ECD0002BEAD1051D2800A1
:10246000FFF761F80723606C1B1AA361084BE06259
:102470001A68904200D91860142343430548290084
:10248000C018FFF72DF80120D4E7C046700E0020D9
:102490001C0F00207C0E0020044B1A68002A03D079
:1024A00019688A6C01328A6418687047700E0020BF
:1024B000F7B51E0001900F001500FFF789F8194CC1
:1024C000236850331B78022B0FD022680199D36CFC
:1024D0008B430121D364236850331970002E04D03C
:1024E0003000FFF731FCFFF767F8FFF77DF8FFF7E3
:1024F0006FF8002D02D02368DB6C2B602368002569
:1025000050331B78012B04D022680135D36CBB43B8
:10251000D3640022236850331A70FFF765F828004F
:10252000FEBDC046700E0020F8B504000D00160078
:102530001F00002801D172B6FEE7FFF749F8002F0F
:1025400001D0E36C3B602200022150321378701EF0
:10255000DBB2117003280AD8FDF7E8FD020604106B
:10256000E26C1543E56402E0E26C0132E264012BA7
:1025700008D00124FFF738F82000F8BD022BF1D174
:102580000024F7E7251D2800FEF7CDFF0D4AE36A7A
:1025900011688B4200D91360142043430A48290074
:1025A000C018FEF79DFFA36A002B01D072B6FEE7AC
:1025B000064BE26A1B68DB6A9A42DAD9FEF7FCFF37
:1025C000D7E7C0461C0F00207C0E0020700E0020B4
:1025D00010B5021E00D0012290202021C005FDF779
:1025E0006FFF10BD10B5021E00D0012290201021F7
:1025F000C005FDF765FF10BD07B56A460B00D11D8C
:102600000B70FA2301225B000148FEF7AFFE07BD05
:10261000F8100020024B0233DB7F0370002070476C
:10262000D811002070B5050008000C00FDF76CFD06
:10263000FA2382B25B0028002100FEF797FE70BDEE
:10264000030070B5EC331B7804001B090020052B38
:102650001AD12300EE331D7801331B782D021D4360
:102660002300F0331A788021531E9A410748D2B2D2
:102670008900FDF725FF0020092D05D9E8342368DE
:1026800004309D4200D0256070BDC046000800485F
:1026900070B500230C00050016001900642220000C
:1026A000FFF798FA31002800FFF7BCFF0023200055
:1026B0001A001900FFF7B0F970BD0000F0B587B03F
:1026C00004000F0015003449112268461E0000F076
:1026D000DBFD112007220021684400F0DEFD601EB2
:1026E00004280FD8FDF722FD030E112D38002B49C9
:1026F0002B4800F0E5F8022804D12A49300000F008
:1027000005FE0324200007B0F0BD254C200000F09A
:1027100095F8052805D12449300000F0F7FD042480
:10272000F0E72B78E43423706A462049300000F04B
:10273000BDFD8021012249001D48FDF7C1FE052491
:10274000E0E7174F1549380000F0BAF80228D9D150
:102750002B78E4373B70E7E71649114800F0B0F8F2
:102760000228CFD18021002249001148FDF7A8FEA0
:10277000002D0FD0104B114A19681148FFF788FF40
:10278000002310481A0019000068FFF7CDFE01234E
:102790003B70B7E72C00B5E7343D0008553D000815
:1027A000E00F0020593D0008613D0008683D000829
:1027B00000080048753D0008A80F0020F40F002015
:1027C00068110020B40F0020C9B2531F0171594293
:1027D0004B41063ADBB24370531E9A410023D2B2FA
:1027E00042708370C370704770B5642504008360C5
:1027F000049B0160C360069B426003612A000021C4
:10280000143000F04AFD20002A000021783000F04A
:1028100044FD23000020DC3318705870059BE03421
:10282000236070BD10B5040000202368984723681A
:102830000120984763680120984710BD10B51430F7
:102840002C2100F055FD032300280CD042780138DC
:102850000178303AD2B20233302904D00023022169
:1028600091425B410433180010BD73B56B46040000
:10287000DD1D2800E36898472000DC300178C9B2EC
:1028800000291AD12300DD331A782D78D2B2561CD4
:10289000F6B2A2181E7015751A78622A00D919703E
:1028A00000211A78A21811750D2D06D1E434227872
:1028B0008A4203D11A700123037073BD2170FCE7B3
:1028C00010B5143000F03FFD43425841023010BDB6
:1028D000F7B505000322002101A800F0DEFC280066
:1028E0001649143000F02FFD04000120002C24D0E4
:1028F0000D21200000F0FCFC03000220002B1CD066
:102900001B1B01301A2B18D12F002618EC371B3453
:102910003100022201A800F001FD1022002101A8CF
:1029200000F0B0FD033638700137A642F0D12B69B4
:102930000620002B01D028009847FEBD783D0008F6
:10294000F0B58BB01422002105A800F0A6FC802071
:10295000334BC00359699027014359615A69FF05F8
:10296000024080200192019A596980020143596115
:102970005A692C4D024080200292029A5969C00285
:102980000143596180215A69090302400392039A65
:102990005A6938000A435A615B6901220B4004936B
:1029A0003021049BFDF78CFD002202211E48FDF71B
:1029B00087FD8021280000224900FDF781FD80214C
:1029C000002228008900FDF77BFD0024012630232A
:1029D00005A938000593069607940894FDF7C0FCF6
:1029E000022305A910480593069607940894FDF75D
:1029F000B7FC802305A95B00280005930696079481
:102A00000894FDF7ADFC802305A99B0028000593E1
:102A1000069607940894FDF7A3FC0BB0F0BDC046E2
:102A20000010024000080048000400487047000001
:102A30000423024A11680B43136070470070004082
:102A400007B58020054A4005D1690143D161D369AA
:102A500003400193019BFDF741FD07BD00100240BB
:102A6000F0B505008DB00F0016000021282202A845
:102A700000F013FC0A212800FDF762FB0001C4B23C
:102A80000A212800FDF7E2FB3800CDB20A21FDF74C
:102A900057FB0001C3B20A2138000093FDF7D6FBB3
:102AA0003000CFB20A21FDF74BFB0001C3B20A216F
:102AB00030000193FDF7CAFB6419231CE4B2C9B2CC
:102AC000232C00D9232302AA1370009BDF193B1C7F
:102AD000FFB2592F00D9592302AA5370019B5918EC
:102AE0000B1CC9B2592900D9592302AA937080231B
:102AF00001221B06079302AB9B18DA77802302A9F9
:102B00005B0005480B93FEF7D3F9002801D000F0D5
:102B100073FA0DB0F0BDC046D810002070B586B075
:102B200001AE14220021300000F0B7FB1E4D1F4BF8
:102B300000242B604F23AB60F4232800FF33009464
:102B40006C60EB602C616C61AC61FEF779F8A042BF
:102B500001D000F051FA0122310028003470747065
:102B6000B470F4603461FEF7CBF8002801D000F0B7
:102B700043FA01226B4669461A7002234B70002308
:102B800028008A70CB70FEF72FF9002801D000F0E2
:102B900033FA0321064B1970064B1A78064B187846
:102BA000FFF75EFF06B070BDD8100020002800407F
:102BB0009D0F00209E0F00209C0F00200B480C4B07
:102BC00010B5036096239B0143600C2200234261F1
:102BD0008360C36003618361C36103624362FEF784
:102BE00057FB002801D000F007FA10BDF8100020B4
:102BF000003801400B480C4B10B5036096239B0135
:102C000043600C22002342618360C36003618361DF
:102C1000C36103624362FEF73BFB002801D000F072
:102C2000EBF910BD6811002000440040124B02680F
:102C300070B5124D9A4217D1FEF7E4FC0600104C15
:102C40002000FFF712FE3000FEF7E1FCDC34012229
:102C50000C490D48FEF7C2F92378002B04D00B4B2A
:102C600029001868FEF779FF2B68002B03D080221B
:102C7000074B52051A6070BD00380140AC0F0020B0
:102C8000E00F0020F9110020F8100020A00F002014
:102C900004ED00E010B5102496B0302200210AA8FF
:102CA00000F0FBFA2200002101A800F0F6FA14223D
:102CB000002105A800F0F1FA0A230AA80A93093BAB
:102CC0000D930E941193FDF719FC002801D000F02C
:102CD00093F90021072301A8019302910391049124
:102CE000FDF724FE002801D000F086F9074B05A867
:102CF00005930023079380239B000693FDF7C2FEF4
:102D0000002801D000F078F916B010BD01000100D4
:102D100070B588B02022002168460125FA2600F00F
:102D2000BCFA6D42B60000230E482A001900006864
:102D3000FEF750FF0128F6D10B4800233200694608
:102D40000068FEF747FF0128EDD1084C6A4621686C
:102D50000748FFF79DFC6A4621680648FFF798FC84
:102D6000E1E7C046A40F0020B00F0020A80F00200C
:102D700068110020F8100020F0B5294B8BB01C2200
:102D8000002103A8029300F088FA264F264C3B78D6
:102D90000193002B1BD1013324482370FFF7E8F97E
:102DA000234E244D244A31682800FFF771FC80210E
:102DB000019A49002148FDF783FB2148FFF738FEBF
:102DC000FFF73EFE1F4A31682800FFF761FC2578B7
:102DD000002D0ED101221C482B00524202A900688E
:102DE000FEF71AFE19482B002A0029000068FEF79A
:102DF00013FE002301221648524219000068FEF714
:102E0000E9FE0128C1D102AB124A38782100FFF750
:102E100055FC0022104B3870DC331A70B5E7C04601
:102E200041540D0004000020B90F0020B80B000031
:102E3000A80F0020681100209F3D000800080048EE
:102E4000D8100020CC3D0008B00F0020A40F0020B7
:102E5000A00F0020B80F0020E00F002070B5002266
:102E6000012311005B421000FFF722FB1248FFF71D
:102E70002FFD124D124C134E042812D11248FFF7A9
:102E800077F92968114A2000FFF702FC3000FFF7AC
:102E9000CFFDFFF7D5FD0E4A29682000FFF7F8FBAC
:102EA000DDE70C4A29682000FFF7F2FB3000FFF74E
:102EB000BFFDFFF7C5FDD2E7E00F0020A80F0020FF
:102EC00068110020D8100020102700009F3D000846
:102ED0007B3D0008A73D00087FB500240125FDF7D4
:102EE000CDF9FFF7D7FEFFF72BFDFFF717FEFFF732
:102EF00065FEFFF77FFE01222A492B48FEF76EF898
:102F0000062228212948FFF75FFC23008022284958
:102F1000019400952748FEF74FFF230080222649A1
:102F2000019400952548FEF747FF254B8022019329
:102F30002449230000952448FEF73EFF234B244EEE
:102F40000293244B244A0193244B254900933000DB
:102F5000244BFFF749FC3300DE3318703000FFF7D5
:102F600061FC80204000FDF7B1FA03222100280017
:102F7000FEF735FD1C4B0322186021002800FEF7E8
:102F80002EFD1A4B18602800FEF7D5FD184B2200C5
:102F9000186020212800FEF722FD164B1860FEF76E
:102FA000CFFFFEE7F9110020F8100020CC0F002021
:102FB000F63D0008792D0008FE3D0008112D00089F
:102FC000B40F0020093E00085D2E000841260008CD
:102FD000E00F0020004BE236E5250008152600082A
:102FE000D1250008F9250008A40F0020A00F00201B
:102FF000A80F0020B00F00207047000007B5012087
:103000000B4B99690143996180219A6949050240F6
:103010000092009ADA6903380A43DA61DB69002218
:103020000B4001930321019BFDF746F907BDC04604
:1030300000100240094B026810B59A420DD180235E
:10304000074A1B02116A02200B431362032100226C
:10305000FDF732F90220FDF75FF910BD00280040AE
:103060000010024010B504008AB01422002105A807
:1030700000F013F92368284A93422AD18020274B75
:10308000C00199690143996180219A6989020240CE
:103090000192019A5A6990200A435A615B69C005FE
:1030A0000B400293029BC023DB000593022306938F
:1030B0000133089305A9023B0993FDF751F900225A
:1030C0001B201100FDF7F8F81B20FDF725F90AB0C9
:1030D00010BD134A9342FAD18022104B9202D96953
:1030E00090201143D961D969C0051140039103991A
:1030F0005969114359615B6905A91A400492049BFF
:103100000C2305930A3B069301330893023B099372
:10311000FDF726F9DBE7C046003801400010024009
:10312000004400407047FEE710B5FDF7B7F8FEF722
:10313000C1F910BD10B50248FDF730FD10BDC04605
:10314000D8100020064810B50368D9691A682023F2
:10315000194203D01A4201D0FEF76EF910BDC046E5
:10316000F81000200121134B13481A680A431A6013
:103170005A6802405A601A68104802401A601A6879
:103180000F4802401A605A680E4802400F205A60E9
:10319000DA6A8243DA621A6B0B4802401A638022B1
:1031A000186B02431A635A6B8A435A6300229A606F
:1031B0007047C046001002400CB8FF08FFFFF6FE43
:1031C000FFFFFBFFFFFFC0FF6CFEFFFF13488546BC
:1031D00004200168090E1F22914205D110480121E7
:1031E00001601048002101600F481049104A002377
:1031F00002E0D458C4500433C4188C42F9D30D4AA9
:103200000D4C002301E013600432A242FBD3FFF710
:10321000A9FF00F015F8FFF75FFEFEE70018002099
:10322000181002400000014000000020DC010020D6
:10323000743F0008DC01002000120020FEE70000BF
:1032400070B500260C4D0D4C641BA410A64209D18C
:10325000002600F053FD0A4D0A4C641BA410A64240
:1032600005D170BDB300EB5898470136EEE7B300C7
:10327000EB5898470136F2E76C3F00086C3F0008B6
:103280006C3F0008703F0008002310B59A4200D13F
:1032900010BDCC5CC4540133F8E70300821893429C
:1032A00000D1704719700133F9E700000EB410B572
:1032B0009DB002A9029008610B4882248860486191
:1032C000012040421FABC881084804CBA40000681D
:1032D00001938C8100F062F90023029A13701DB0F3
:1032E00010BC08BC03B01847FFFFFF7F0C00002094
:1032F000C9B20378002B04D0994200D17047013045
:10330000F7E74B42594149420840F7E7031C0A7866
:1033100001311A700133002AF9D1704770B50400E9
:10332000002A00D170BD0D78561E631C2570013136
:10333000002D05D1A4189C42F4D01D700133FAE78A
:103340001C003200ECE710B502000078002804D120
:10335000097800290DD010BD013210780028FAD06C
:103360000023C85C002804D0D45C8442F4D101332B
:10337000F7E71000EFE70000F0B51F000E0087B080
:103380000590039102920C98347800F08FF808228F
:1033900000194378751C13400CD12D2C0CD101332E
:1033A0002C780193B51C002F0CD0102F14D1302C89
:1033B0000AD011E02E00E6E701932B2CF3D12C78F4
:1033C000B51CF0E7302C2FD120222B789343582BBB
:1033D00051D110276C780235019B294A39009E187B
:1033E0003000FCF733FF300004913900FCF7A8FEF1
:1033F00001210023494202008C4618002100303987
:10340000092913D80C00A7421CDD591C09D06346BA
:10341000824206D302D10499A14202DB0123784300
:1034200020182C780135E9E70A27D5E72100413932
:10343000192901D8373CE6E721006139192901D85B
:10344000573CE0E75A1C08D1059A23331360029BCE
:103450003000002B0BD107B0F0BD019A002A00D03C
:103460004042029A002AF6D0039A002B00D06A1E2E
:10347000029B1A60EFE73024002FADD10837ABE78D
:10348000FFFFFF7F37B51300064A05001068046A86
:10349000002C00D1044C0A0000942900FFF76CFFB7
:1034A0003EBDC0460C00002070000020EC300068DB
:1034B000704782B0002900D101A9101E06D0002B50
:1034C00006D013780B601078431E984102B0704705
:1034D00002204042FAE70000F0B58E6885B0070090
:1034E0000C00039201939E4239D890238A89DB0015
:1034F0001A4234D00325096923685B1A0293636971
:1035000002985D43EB0F5D19019B6D1001331B1891
:10351000AB4200D91D00530532D52900380000F018
:103520003DFB061E09D10C233B6040230120A289EC
:1035300040421343A38105B0F0BD029A2169FFF711
:10354000A3FEA389144A1A4080231343A381029B3C
:103550002661F61826606561019EED1AA560019B43
:10356000B34200D21E0032000399206800F0B9FA7D
:10357000A36800209B1BA36023689E192660DAE7DE
:103580002A00380000F068FB061EE0D121693800EF
:1035900000F0BAFAC7E7C0467FFBFFFFF0B59FB067
:1035A000029005938B890F0016001B0611D50B693D
:1035B000002B0ED1402100F0F1FA3860386100286C
:1035C00005D10C23029A013813601FB0F0BD4023CF
:1035D0007B61002306AD6B6120336B761033AB76D5
:1035E00034002378002B47D1A31B04930DD0A31BD9
:1035F000320039000298FFF76FFF431C00D1B5E09D
:103600006A69049B944663446B612378002B00D164
:10361000ACE00122002352426A6002A954325218DF
:1036200001342B60EB60AB601370AB65584E052224
:103630002178300000F04AFA621C002820D1296865
:10364000CB0604D5532302AE20309B1918700B070C
:1036500004D553232B2002AE9B19187023782A2BF4
:1036600016D000200A21099B2278303A092A55D920
:10367000002815D0099313E0252BB5D00134B0E70D
:103680000123801B8340296814000B432B60CDE786
:10369000059B181D1B680590002B39DB099314004E
:1036A00023782E2B0BD16378621C2A2B3ED1059BED
:1036B00002341A1D1B680592002B34DB0793354E2C
:1036C00021780322300000F001FA002806D04023C0
:1036D000801B83402A68013413432B602178062223
:1036E0002D48661C297600F0F1F9002846D02B4BB6
:1036F000002B2FD12968059B0722C90528D59B18C7
:103700009343083305936B69039A9B186B6167E7D2
:103710005B42EB6002230B432B60C0E74B43013459
:103720009B180120A0E701235B42C7E70023140098
:103730000A201A006B6021783039092903D9002B3F
:10374000BDD00792BBE74243013452180123F2E790
:103750000733D5E705AB00933A00114B29000298D7
:1037600000E000BF0390039B0133CCD1BB890B98D1
:103770005B0600D429E70120404226E705AB009311
:103780003A00074B2900029800F07AF8EAE7C046B1
:10379000353E00083B3E00083F3E000800000000A8
:1037A000D9340008F7B5150001938A680B690090B9
:1037B0000C00934200DA130022002B60433212788F
:1037C000002A01D001332B6023689B0602D52B68A9
:1037D00002332B60062723681F4027D02300433382
:1037E0001B785A1E93412268920630D42200019918
:1037F00043320098089EB047431C25D0062320681A
:103800002A68E16803400025042B03D18D1AEB439D
:10381000DB171D40A3682269934201DD9B1AED1856
:103820000027BD4220D1002010E00137E3682A685C
:103830009B1A9F42D2DA2200012319320199009883
:10384000089EB047431CF0D101204042FEBD30200D
:10385000E1184331087021005A1C45310978A2183B
:10386000433202331170C1E7220001231A32019959
:103870000098089EB047431CE6D00137D1E700000E
:10388000F0B58BB006920A0043320793059004927C
:103890000A7E0C00109B6E2A00D18FE017D8632A95
:1038A0002CD008D8002A00D199E0582A54D02600FC
:1038B0004236327029E0642A01D0692AF7D12168A2
:1038C0001A68080623D5111D1960156825E0732AAA
:1038D00000D188E008D86F2A29D0702AE7D12022A9
:1038E00009680A43226003E0752A20D0782ADED1D5
:1038F00022007821453211706C4A30E00E001A68BF
:103900004236111D196013683370012379E04906AE
:10391000D9D5111D19600023D55E002D03DA2D23A2
:10392000049A6D421370624B0A2703932FE02068BC
:103930001968050603D5081D18600D6805E04006E6
:10394000F9D50D68081D1860ADB2594B08270393CF
:103950006F2A18D00A2716E045310A70544A03929C
:103960001A682168101D18601568080622D5CB0753
:1039700002D52023194321601027002D03D12023D5
:1039800022689A4322602300002243331A7063683E
:10399000A360002B5CDB0422216891432160002D91
:1039A00058D1049E002B64D02600039B42361B781E
:1039B00033705EE04806DAD5ADB2D8E709681A6818
:1039C000080605D5111D1960136862691A6006E0C2
:1039D0004906F7D5111D19601368A28A1A800023C1
:1039E000049E236154E01A68111D196016680021B5
:1039F0006268300000F06AF8002801D0801B606027
:103A0000636823610023049A137041E02369320044
:103A100006990598079DA847431C43D023680025B5
:103A20009B070FD4099BE06898423DDA18003BE001
:103A300022000123193206990598079EB047431CBE
:103A400030D00135E368099A9B1A9D42F0DBE9E723
:103A5000002DA9D0049E28003900FCF7F7FB039B3A
:103A6000013E5B5C280033703900FCF769FB051EE2
:103A7000F1D1082F09D12368DB0706D563682269D5
:103A8000934202DC3023013E3370049B9B1B236175
:103A9000079B09AA00932100069B0598FFF782FE69
:103AA000431CB3D1012040420BB0F0BD573E00088B
:103AB000463E00080B1E04D0FF2A04D98A23036067
:103AC0008B3B180070470A700123FAE7C9B28218CD
:103AD000904201D10020704703788B42FBD0013027
:103AE000F6E710B5884202D98B18984208D3002314
:103AF0009A4207D0CC5CC4540133F9E78B5C835401
:103B0000013AFBD210BD000070B50500002910D0AD
:103B10000C1F2368002B00DAE418280000F0D4F80A
:103B20001D4A1368002B05D163601460280000F063
:103B3000CCF870BDA34209D9216860188342F3D143
:103B400018685B6841182160EEE713005A68002A84
:103B500001D0A242F9D919685818A0420BD12068A7
:103B60000918581819608242E0D11068526841184B
:103B700019605A60DAE7A04202D90C232B60D5E71E
:103B800021686018824203D1106852684118216090
:103B900062605C60CAE7C046BC0F0020032370B5BA
:103BA000CD1C9D43083506000C2D1ED20C25A942C4
:103BB0001DD8300000F088F8254A1468210000293B
:103BC00019D1244C2368002B03D1300000F06AF88F
:103BD00020602900300000F065F8431C2CD10C2334
:103BE0003000336000F071F803E0002DDFDA0C23C1
:103BF0003360002070BD0B685B1B1AD40B2B03D9FC
:103C00000B60CC18256003E08C420ED16368136012
:103C1000300000F05AF8200007220B30231D90439B
:103C2000C31AE7D05A42E250E4E74B6863600C00E5
:103C3000EEE70C004968C2E70323C41C9C43A04282
:103C4000E0D0211A300000F02DF8431CDAD1C6E78D
:103C5000BC0F0020C00F0020F8B507000D001600B3
:103C6000002905D11100FFF799FF04002000F8BDDD
:103C7000002A03D1FFF748FF3400F7E700F026F8E9
:103C80002C008642F2D931003800FFF787FF041E6E
:103C9000ECD029003200FFF7F7FA29003800FFF7CF
:103CA00033FFE3E7002370B5064C050008002360EE
:103CB00000F014F8431C03D12368002B00D02B60C4
:103CC00070BDC046FC110020704770470B1F1B6879
:103CD000181F002B01DA0B58C0187047054B020063
:103CE0001968002901D104491960186882181A60FE
:103CF0007047C046C40F002000120020F8B5C0462F
:103D0000F8BC08BC9E467047F8B5C046F8BC08BC75
:043D10009E46704714
:103D140002030405060708090A0B0C0D0E0F101008
:103D24000102030405060708090A0B0C0D0E0F1007
:103D34003430633732313233633239373436626385
:103D440000000000000000000004080249444C4543
:103D5400004F4B0D0041542447493F0D004154246A
:103D640052430D0041542453463D25732C25640DC4
:103D7400004F4B005258005369207061736F2065E7
:103D840073746F20656C207543206E6F20656E74AC
:103D9400726F20656E206D6F646F20536C65657063
:103DA4000D0A00446F776E6C696E6B2054696D6503
:103DB4006F757420206F72204E6F6E20446F776E83
:103DC4006C696E6B200D0A005369207061736F205B
:103DD4006573746F20656C207543206E6F20656E6B
:103DE40074726F20656E206D6F646F20536C65650F
:103DF40070005461736B46534D005461736B547877
:103E040055617274004465636F4672616D650000AC
:103E14000000000000000001020304060708090076
:103E2400000000010203044300504F534958002E80
:103E340000232D302B2000686C4C006566674546D6
:103E44004700303132333435363738394142434410
:103E540045460030313233343536373839616263A0
:103E640064656600002020202020202020202828AF
:103E74002828282020202020202020202020202026
:103E84002020202020881010101010101010101066
:103E94001010101010040404040404040404041096
:103EA4001010101010104141414141410101010124
:103EB40001010101010101010101010101010101EE
:103EC40010101010101042424242424202020202FA
:103ED40002020202020202020202020202020202BE
:103EE400101010102000000000000000000000006E
:103EF40000000000000000000000000000000000BE
:103F040000000000000000000000000000000000AD
:103F1400000000000000000000000000000000009D
:103F2400000000000000000000000000000000008D
:103F3400000000000000000000000000000000007D
:103F4400000000000000000000000000000000006D
:103F5400000000000000000000000000000000005D
:083F6400000000000000000055
:043F6C00E900000860
:043F7000C100000884
:103F7400AAAAAAAA0100000000127A0010000020D8
:103F8400000000000000000000000000000000002D
:103F9400000000000000000000000000000000001D
:103FA400000000000000000000000000000000000D
:103FB40000000000000000000000000000000000FD
:103FC40000000000000000000000000000000000ED
:103FD40000000000000000000000000000000000DD
:103FE400430000000000000000000000000000008A
:103FF40000000000000000000000000000000000BD
:104004004300000000000000000000000000000069
:10401400000000000000000000000000000000009C
:104024004300000000000000000000000000000049
:10403400000000000000000000000000000000007C
:104044004300000000000000000000000000000029
:10405400000000000000000000000000000000005C
:104064004300000000000000000000000000000009
:10407400000000000000000000000000000000003C
:1040840043000000000000000000000000000000E9
:10409400000000000000000000000000000000001C
:1040A40043000000000000000000000000000000C9
:1040B40000000000000000000000000000000000FC
:1040C400B53A0008B334000800000000683E000858
:1040D400333E0008CB3D0008CB3D0008CB3D000833
:1040E400CB3D0008CB3D0008CB3D0008CB3D00088C
:1040F400CB3D0008CB3D0008FFFFFFFFFFFFFFFFA4
:10410400FFFFFFFFFFFF0000010041534349490047
:10411400000000000000000000000000000000009B
:104124000000000000000000000041534349490022
:10413400000000000000000000000000000000007B
:0C4144000000000000000000000000006F
:04000005080031CDF1
:00000001FF
