:020000040800F2
:1000000000180020F92D00084D2D00084F2D000884
:1000100000000000000000000000000000000000E0
:10002000000000000000000000000000A51500080E
:10003000000000000000000011160008512D00080B
:10004000692E000800000000612D0008692E0008DC
:10005000692E0008692E0008692E0008692E000824
:1000600000000000692E0008692E0008692E0008B3
:10007000692E0008692E0008692E000800000000A3
:10008000692E00080000000000000000692E000832
:1000900000000000692E0008692E0008692E000883
:1000A00000000000692E000800000000712D00080B
:1000B000692E00080000000000000000692E000802
:1000C00010B5064C2378002B07D1054B002B02D02E
:1000D000044800E000BF0123237010BD6C00002025
:1000E0000000000028370008044B10B5002B03D097
:1000F0000349044800E000BF10BDC04600000000F6
:1001000070000020283700080023C25C0133002A59
:10011000FBD1581E7047000002B4714649084900DF
:10012000095649008E4402BC7047C04602B471466D
:1001300049084900095C49008E4402BC7047C0462A
:10014000002243088B4274D303098B425FD3030A16
:100150008B4244D3030B8B4228D3030C8B420DD329
:10016000FF22090212BA030C8B4202D312120902B7
:1001700065D0030B8B4219D300E0090AC30B8B42F5
:1001800001D3CB03C01A5241830B8B4201D38B03A3
:10019000C01A5241430B8B4201D34B03C01A524148
:1001A000030B8B4201D30B03C01A5241C30A8B428B
:1001B00001D3CB02C01A5241830A8B4201D38B0276
:1001C000C01A5241430A8B4201D34B02C01A52411A
:1001D000030A8B4201D30B02C01A5241CDD2C3098C
:1001E0008B4201D3CB01C01A524183098B4201D308
:1001F0008B01C01A524143098B4201D34B01C01AF3
:10020000524103098B4201D30B01C01A5241C3086A
:100210008B4201D3CB00C01A524183088B4201D3D9
:100220008B00C01A524143088B4201D34B00C01AC5
:100230005241411A00D20146524110467047FFE731
:1002400001B5002000F006F802BDC0460029F7D035
:1002500076E770477047C04610B5040000F0F6FB23
:10026000FA218900FFF76CFF00F060F801200022FE
:100270002100404200F020F8002010BD1023064A63
:1002800010B5116803200B431360FFF7E5FF02F080
:10029000C9FC002010BDC04600200240024A13687D
:1002A000013313607047C046F00D0020014B186801
:1002B0007047C046F00D002070B58901002814DA9F
:1002C0000F23C0B20340083B114A9B089B009B18B8
:1002D000032210409040FC321500114085408140BF
:1002E000DC69AC432143D96170BD032583082840F4
:1002F000A840FC352E00074A9B009B18C022864070
:100300002940814092009C58B44321439950EBE727
:1003100000ED00E000E100E01F2318401E3B834099
:10032000014A13607047C04600E100E0094A431EDD
:10033000012093420DD8C021074A08485360036A40
:1003400009061B021B0A0B4303620020072390606F
:1003500013607047FFFFFF0010E000E000ED00E0D9
:1003600010B502F0B7F810BDF0B50B6887B0029376
:1003700000230191029ADA4001D107B0F0BD0122B9
:100380009A4003920399029A0A40009200D18CE0AD
:10039000019A1021526816008E43022E0ED10725B5
:1003A0001D40AD000139A940DC08A4000419276AEA
:1003B0008F4301990969A9400F43276203245F0015
:1003C000BC40E4430568013E2540AC46032515408A
:1003D000BD4061460D430560012E0FD80199866826
:1003E000CD682640BD4035438560466803991509B0
:1003F0008E4301210D409D4035434560C5680199FC
:100400002C408D688021BD4049052C43C4600A42C0
:100410004BD00121264C0326A5691E400D43A56142
:10042000A4699D080C400594059C0F242149AD004A
:10043000B6006D18B4409021AF68C905A7430024E9
:1004400088420CD01C490134884208D01B49013431
:10045000884204D01A490334884200D1023CB44097
:1004600000993C430E00AC60164CCD4327683E43D8
:10047000D10301D43E002E4026606768009E3E43B3
:10048000910301D43E002E406660A768009E3E4363
:10049000D10201D43E002E40A660E668009F37439B
:1004A000920201D42E403700E760013362E7C04674
:1004B000001002400000014000040048000800480D
:1004C000000C00480004014000690840411E8841BA
:1004D000C0B27047002A01D0816170478162FCE799
:1004E000024A5368184350607047C046007000408D
:1004F000F0B5036885B00500DB072FD42B689B0798
:1005000000D586E02B681B0700D5C6E02B685B078B
:1005100000D5E9E02B68DB061AD56A69BA4C0423DA
:10052000012A00D055E1616B02260B436363636BC4
:100530001A436263FFF7BAFE0700636B334200D1D0
:1005400040E1F821626BAB698A43DB0013436363CC
:10055000296A002900D063E1002018E00C21AA4C90
:1005600062680A40042A0BD063680B40082B10D144
:10057000C02263685202134080225202934208D183
:1005800023689B03BAD56B68002BB7D1012005B057
:10059000F0BD6B68012B13D1802322685B021343EB
:1005A0002360FFF783FE80260700B60223683342EC
:1005B000A4D1FFF77BFEC01B6428F7D90320E6E730
:1005C000002B16D12368914A8026134023602368AC
:1005D0008F4AB60213402360FFF768FE07002368C6
:1005E000334200D18AE7FFF761FEC01B6428F6D9C9
:1005F000E4E7052B05D180232268DB021343236047
:10060000CAE72368814A134023602368804A134065
:10061000C6E70C227C4C636813420BD0636813401E
:10062000082B15D1C02263685202134080221202A7
:1006300093420DD123689B0702D5EB68012BA5D10E
:10064000F82122682B698A43DB001343236059E7B2
:10065000EA680123002A0FD0226802261343236090
:10066000FFF724FE070023683342E9D1FFF71EFE9F
:10067000C01B0228F7D9A1E7226802269A4322600C
:10068000FFF714FE07002368334200D13AE7FFF773
:100690000DFEC01B0228F6D990E7EA6901235A4CE7
:1006A000002A10D0626A022613436362FFF7FEFD40
:1006B0000700636A334200D028E7FFF7F7FDC01B4D
:1006C0000228F6D97AE7626A02269A436262FFF745
:1006D000EDFD0700636A334200D117E7FFF7E6FD3F
:1006E000C01B0228F6D969E780220021464C52053A
:1006F000E3690091134208D1E3691343E361E369BD
:1007000013400393039B012300938027414E7F00F6
:1007100033683B4206D0AB68012B13D1226A1343E6
:10072000236230E033683B433360FFF7BFFD019045
:1007300033683B42EFD1FFF7B9FD019BC01A642833
:10074000F6D93BE70122002B14D1236A02279343F9
:100750002362236A033293432362FFF7A7FD060057
:10076000236A3B4225D0FFF7A1FD2B4B801B98420B
:10077000F6D923E7052B0BD1216A013B0B432362FA
:10078000236A1A432262FFF791FD022706000DE05B
:10079000236A934304222362236A9343C0E7FFF74B
:1007A00085FD1D4B801B984200D907E7236A3B4219
:1007B000F5D0009B012B00D0ACE6E369174A13404B
:1007C000E361A7E6FFF772FDC01B022800D8B4E67C
:1007D000F4E6053203D1626B9A436263B1E6626B61
:1007E0000226134301226363636B93436363FFF742
:1007F0005DFD0700636B334200D1A9E6FFF756FDAC
:10080000C01B0228F6D9D9E600100240FFFFFEFF08
:10081000FFFFFBFF0070004088130000FFFFFFEFA9
:100820000C22264C012063681340082B00D1AEE651
:100830002368234A1340236002292FD1FFF736FD96
:1008400080260700B6042368334221D10F22E36AD1
:100850009343EA6A1343E362696AAB6A62680B43D3
:10086000184980250A4013436360802322685B0493
:1008700013432360FFF71AFD0600AD0423682B42E3
:1008800000D069E6FFF712FD801B0228F6D995E635
:10089000FFF70CFDC01B0228D5D98FE6FFF706FD38
:1008A00080250600AD0423682B4200D154E6FFF7F3
:1008B000FDFC801B0228F6D980E6C04600100240ED
:1008C000FFFFFFFEFF7FC2FF30B5124D89B010223F
:1008D0002900684602F0EEFA290004AC103110221B
:1008E000200002F0E7FA0C220B494B681A40082A54
:1008F0000DD1CA6A0F2168469B0C0B400A40C55CAB
:10090000A15C0648FFF71CFC684309B030BD0348F2
:10091000FBE7C046403700080010024000127A0092
:10092000F7B50122434C060023680F0013408B42A9
:100930001CD33268930723D4D30729D40123226818
:100940001A40974267D333683B4C5B076AD4FFF782
:10095000BBFF6368394A1B061B0FD35CD840384B7A
:1009600018600320FFF778FC002008E02368934319
:100970000B432360236813409942DAD00120FEBD67
:10098000F0202D494B688343B06803434B60D3E7A5
:10099000294D72682B68012A1AD19B03EED50321D9
:1009A0006B688B4313436B60FFF780FC73680190A7
:1009B000012B15D10C226B681340042BBED0FFF71E
:1009C00075FC019BC01A1F4B9842F3D90320D6E750
:1009D000022A02D19B01E2D4D0E79B07DFD4CDE706
:1009E000022B12D00C226B681342A7D0FFF75EFCDB
:1009F000019BC01A134B9842F4D9E7E7FFF756FC66
:100A0000019BC01A0F4B9842E0D80C226B68134030
:100A1000082BF3D192E722689A43226022681A4297
:100A2000ACD190E76368084A1340F26813436360EF
:100A30008DE7C0460020024000100240A4370008A5
:100A40000400002088130000FFF8FFFF014B186826
:100A50007047C04604000020044B054A5B685B05F4
:100A60005B0FD35C034A1068D84070470010024007
:100A7000B437000804000020F0B5036885B0050015
:100A8000DB0328D5802200213B4C5205E36900910D
:100A9000134208D1E3691343E361E369134003930D
:100AA000039B012300938027344E7F0033683B4231
:100AB0002FD0C022236A92001340314E3BD1236ACB
:100AC0001E406B681E43009B2662012B03D1E36925
:100AD0002C4A1340E3612A68D30706D50320264930
:100AE0000B6B8343A86803430B63930606D5102062
:100AF00021490B6B8343E86803430B630020930396
:100B000017D580211C4A136B8B4329690B43136350
:100B10000FE033683B433360FFF7C8FB0190336855
:100B20003B42C6D1FFF7C2FB019BC01A6428F6D92D
:100B3000032005B0F0BD69680A409342BFD080230E
:100B4000226A206A11005B0203432362236A0E4873
:100B50003140034023622162D307B0D5FFF7A6FBE3
:100B600007000222236A1342A9D1FFF79FFB074B1C
:100B7000C01B9842F5D9DBE700100240007000402E
:100B8000FFFCFFFFFFFFFFEFFFFFFEFF88130000EA
:100B9000036810B59A680400D2040AD5DB68DB0547
:100BA00007D501F0EDFD2168054BCA68D2B21343A9
:100BB000CB608022034B92025A610123637710BD00
:100BC0007FFEFFFF00040140A0210268F8B5D36852
:100BD00004008B43D360FFF769FBFA27060020254A
:100BE000BF002368DB682B4201D00020F8BDFFF76F
:100BF0005DFB801BB842F4D90320F7E7F8B5402429
:100C000003680500DA68224201D00020F8BD012205
:100C10005242DA60FFF74AFBFA270600BF002B6852
:100C2000DB682342F1D1FFF741FB801BB842F6D9C4
:100C30000320EBE770B504000125002818D0437F9E
:100C4000DBB2002B02D1037702F008F80223CA229C
:100C50006377236820005A62773A5A62FFF7CEFF23
:100C60002368051E06D0FF225A62042301256377FC
:100C7000280070BD9A68174920690A409A60626826
:100C800099680243606902430A439A60E2681A6104
:100C9000A268196912040A4380211A61DA688A433A
:100CA000DA609B689B0606D42000FFF78DFF0028C2
:100CB00001D02368D7E7236807491A6C0A401A64F1
:100CC0001A6CA1690A431A64FF225A6201236377EE
:100CD000CEE7C046BFFF8FFFFFFFFBFF00230928C1
:100CE00003D81B011843C0B270470A380133C0B2A1
:100CF000F5E700000223F7B50D00017F04001F0097
:100D0000012932D001214377036801779B683F3185
:100D100028786E78AF780B40002A28D1002B00D1BC
:100D2000EB70FFF7DBFF01903000FFF7D7FF060005
:100D30003800FFF7D3FFEF78019B3F040743180407
:100D400007433602CA22236820005A62773A5A6261
:100D5000FFF754FF3E432368071E12D0FF225A625A
:100D6000042363770023237701273800FEBD002B7F
:100D700000D1EB700004360206433743EE783604A8
:100D8000E0E71448144906401E609A6828690A4042
:100D90009A60EA68996802430A4380219A60DA6897
:100DA0008A43DA609B689B060BD42000FFF70CFF98
:100DB000002806D0FF2223685A620423277763772E
:100DC000D2E7FF2223685A62012363770023237747
:100DD000CBE7C0467F7F7F00FFFFFBFF0223F7B515
:100DE0000D00017F04001E00012931D0012143774D
:100DF00001776B78E878AF782E78002A48D11032E6
:100E0000134202D093430A336B70FFF767FF0190E0
:100E10006878FFF763FF05003800FFF75FFF019B6D
:100E2000760330431E0406432D023543CA2223684D
:100E300020005A62773A5A62FFF7E0FE2368061EE6
:100E400008D0FF225A620423637700232377012608
:100E50003000FEBD8021124F3D405D60DA688A435C
:100E6000DA609B689B060BD42000FFF7ADFE0028DC
:100E700006D0FF2223685A62042326776377E6E7C9
:100E8000FF2223685A620123637700232377DFE779
:100E900000041B0203431F4375033D43C6E7C046DE
:100EA0003FFFFF000223F0B50C00017F050085B075
:100EB0001800012900D182E001216B772B68297786
:100EC0009B683F3120786678A7780B40002A57D17D
:100ED000002B00D1E370FFF701FF01903000FFF716
:100EE000FDFE06003800FFF7F9FE0700631CD87FFF
:100EF000FFF7F4FE6269E36936021343E2781204F5
:100F000013431F43019B1B041F433E43CA226368D4
:100F10002C490193A369000602932B6806435A6289
:100F2000773A5A629A6801270A409A60D968264A35
:100F3000C9B20A43DA60FFF7B9F903902B68DC689D
:100F40003C402ED00299019ADE610A435A64802205
:100F5000996852000A439A608022996852010A43B4
:100F600080219A60194A89021068084310609068CD
:100F7000014391600020FF225A626F7728771EE0BC
:100F8000002B00D1E370E3696269000413431F433F
:100F90000743E078360200043E43631C0643D87FD3
:100FA000B4E7FFF783F9039BC01AFA239B0098422A
:100FB000C4D9FF2203202B685A6268772C7705B0CA
:100FC000F0BDC046FFFEFFFF7FFEFFFF00040140B3
:100FD000F0B506006A36347803000220202C35D1A3
:100FE0000138002932D0002A30D080259C686D015C
:100FF000AC4204D11D69002D01D1014226D11D0052
:1010000068352F780220012F20D0013828705965CB
:10101000190058310A804A8080225201944218D126
:101020001A69002A13D113491A005C32118000207A
:101030002222D8661B6832709968213A0A432870C8
:101040009A609022196852000A431A60F0BDFF218D
:10105000EAE7002C04D11A69002AF8D07F21E3E7DF
:10106000802252059442E2D11A69002AF6D03F212B
:10107000DAE7C046FF01000070B504000568C269E8
:10108000836800692968034360693F4E03433F4812
:10109000134301400B432B606B683D49206A0B40B2
:1010A000E1680B436B60A369A968034339480140B9
:1010B0000B43AB6080231B02B54210D1032036499D
:1010C000096B01403548405C9A4213D0082858D833
:1010D000FFF72CF8375742574B57575750003049B6
:1010E0008D424CD19A422CD1FFF7B6FC6368400088
:1010F0005B080BE0082821D8FFF70EF8F620052042
:10110000182020201B0063685808264BC01861680F
:10111000FFF716F883B200200F22190091430A004E
:101120001B0721685B0F1343CB6070BDFFF7CCFB3F
:10113000DCE76368580880235B02E7E701200023AF
:10114000EAE7FFF789FC61684B081818FEF7F8FF1B
:1011500080B2E8600020E8E76168134B4808C018D7
:10116000FEF7EEFF80B2F060F4E7FFF7ADFB6168D9
:101170004B08F4E7802361681B024808EFE79A42B6
:10118000DCD00120D1E7C04600380140F369FFEF11
:10119000FFCFFFFFFFF4FFFF0010024060370008A1
:1011A000004400400024F40000127A00436A30B585
:1011B000DA0706D50168284C4A682240846A22432F
:1011C0004A609A0706D50168244C4A682240C46ADE
:1011D00022434A605A0706D50168214C4A682240DA
:1011E000046B22434A601A0706D501681D4C4A6801
:1011F0002240446B22434A60DA0606D501681A4C45
:101200008A682240846B22438A609A0606D5016868
:10121000164C8A682240C46B22438A605A0610D555
:101220000168134D4A68046C2A4022434A608022B8
:101230005203944205D14A680E4C2240446C22432A
:101240004A601B0606D502680B4953680B40816C47
:101250000B43536030BDC046FFFFFDFFFFFFFEFFA5
:10126000FFFFFBFFFF7FFFFFFFEFFFFFFFDFFFFF42
:10127000FFFFEFFFFFFF9FFFFFFFF7FF70B5041EAB
:1012800001D1012070BD050069352B78DBB2002B40
:1012900004D102006832137001F0F8FC242301210C
:1012A00022682B70136820008B431360FFF7E4FE65
:1012B0000128E6D0636A002B02D02000FFF776FFFA
:1012C00023680B495A6800200A4008215A609A682E
:1012D0008A439A60012219680A431A602200202377
:1012E000E0666A3268342B7013702070CAE7C0461B
:1012F000FFF7FFFFF8B504000E0015001F0022687D
:10130000D36933409B1B59424B41AB4201D0002073
:1013100018E0069B0133F3D0069B002B13D1236802
:101320000C491A6803200A401A609A68A331FF31F9
:101330008A439A602200202369321370537000237D
:1013400068342370F8BDFEF7B1FF069BC01B8342D3
:10135000D5D2E4E75FFEFFFFF0B5070085B0039349
:1013600069373B7804000D0016000220202B46D17F
:101370000138002943D0002A41D08023A2685B01B4
:101380009A4204D12369002B01D1014237D12300B5
:1013900068331A780220012A31D001221A70002302
:1013A000E36621333B70FEF781FF230050331E803C
:1013B0005E80802602907601210052310A8892B226
:1013C000002A0DD1039B402100932000029BFFF7D0
:1013D00091FF002812D1202368343B7020700EE06A
:1013E0000B880022013B9BB20B80039B8021009362
:1013F0002000029BFFF77EFF002802D0032005B0EB
:10140000F0BDA3682268B34208D12369002B05D13F
:101410002B880235DB05DB0D1385CDE72B780135F5
:101420001385C9E7020070B56A3211780368222972
:101430002DD1010080245C310D88998C64012940F4
:101440008568436DA5421ED10469002C1BD119800B
:1014500002334365010000245A310B88013B9BB2E3
:101460000B80A3420DD103680C4D19682940196007
:1014700099682335FF35A94399602023137001F043
:101480006FFA200070BD5C1C44651970E2E7082209
:10149000996902240A439A61F3E7C046DFFEFFFF21
:1014A00010B500F03FFD002010BD10B500F08AFF20
:1014B000012801D000F0CEF810BD0300012208334E
:1014C0004360C3600361002352428260036070473F
:1014D00000230361704743689A684B608A609A688A
:1014E000516099600368086101330360704703002D
:1014F0000A6830B50833541C0BD103695A684A6036
:1015000091608B605960036808610133036030BDEE
:1015100023005C682568AA42FAD2EFE74168826836
:1015200003698A60826851605968884200D15A60B4
:10153000002202611A68501E18607047034B1B6836
:10154000013301D072B6FEE772B6FEE7000000205C
:101550000B4A13681868203080F30988022080F352
:101560001488BFF36F8F3FBCAE4608BC04BC62B6A4
:101570001847C046C046C046C046C046C046C046E2
:10158000A00C002010B58024031F64041C60043BE1
:1015900019600349043B1960143B40381A6010BDC0
:1015A0003D150008704700008022044B52051A6068
:1015B000BFF34F8FBFF36F8F7047C04604ED00E05D
:1015C00072B6044A136801331360BFF34F8FBFF341
:1015D0006F8F704700000020054A1368002B01D16F
:1015E00072B6FEE7013B1360002B00D162B6704774
:1015F00000000020EFF3108072B67047002080F3E7
:10160000108870470000000000000000000000008B
:10161000EFF309800E4B1A6820381060F0C0444682
:101620004D4656465F46F0C008B572B600F000FE63
:1016300062B60CBC116808681030F0C8A046A94614
:10164000B246BB4680F309882038F0C81847C04628
:10165000A00C002010B5FFF7CDFF040000F09AFCAD
:10166000002803D08022034B52051A602000FFF7A8
:10167000C6FF10BD04ED00E0FA21064B10B5186856
:101680008900FEF75DFD0722034B01381860034B0C
:101690001A6010BD0400002014E000E010E000E03B
:1016A000FF220A4B1204196810B50A431A60FF2280
:1016B000196812060A431A60FFF7DEFF0022044B86
:1016C0001A60FFF745FFFFF739FFC04620ED00E045
:1016D0000000002010B50F4B1A68824218D35C68D6
:1016E0001919884203D141681800091959604168E5
:1016F0004418A24207D1084C2468A24203D054687F
:101700001268611841600260984200D0186010BDF4
:101710001300E1E7980C002088000020F8B50400D1
:1017200000F02AFC384A39481368002B1ED138498A
:101730000733194236D0CD189D43C0231B01C91869
:101740004B1B29000025334ECB18756031600726EE
:10175000083BB3431D605D605D1A136028C12E4BCA
:101760001D602E4B1D6080231B06036006683442FB
:1017700016D1002C14D02300072108330B4201D0CE
:101780008B430833002B0BD024490D68AB4207D89C
:1017900020490C686068834207D8126894420BD1D4
:1017A000002528E0C0231B01CCE72768BC46002F9A
:1017B000F3D021006446EDE70A68170022680A604A
:1017C000C21A102A08D9E018410701D072B6FEE704
:1017D00042606360FFF77EFF6368104AED1A156090
:1017E0000D4A11688D4200D215601E433D00002352
:1017F00008356660236000F04BFC6B0701D072B6C1
:10180000FEE72800F8BDC046880000208C0C0020B0
:101810008C000020980C0020940C0020900C0020DC
:1018200010B500281BD00E4A08384368126804001F
:101830001A4201D172B6FEE70168002901D072B6E2
:10184000FEE79343436000F097FB064A6368116824
:1018500020005B181360FFF73DFF00F019FC10BD7E
:101860008C0C0020900C002070B51600026C040057
:10187000856B002A0AD106681000002E03D160682B
:1018800000F0E6FD66600135A56370BD002E0DD148
:10189000806801F00FFBA368226C30009B1862681F
:1018A000A3609342EFD32368A360ECE7C06801F024
:1018B00001FB236CE2685B422168D218E2608A4235
:1018C00002D26268D318E3600020022EDBD12B0025
:1018D0005A1E9341ED1AD6E703001A6C10B50800A2
:1018E000002A0AD0D9685C688918D960A14201D35E
:1018F0001968D960D96801F0DDFA10BD70B505002E
:101900002E004536FFF75CFE347864B2002C10DC04
:10191000FF2333702E004436FFF75EFEFFF750FEC4
:10192000347864B2002C11DCFF233370FFF754FECF
:1019300070BD6B6A002BEBD02800243000F0C0FC97
:10194000002801D000F038FD013CDEE72B69002BB8
:10195000EAD02800103000F0B3FC002801D000F0DD
:101960002BFD013CDDE770B504000D00002801D11E
:1019700072B6FEE7FFF724FE216CE36B22684B434F
:10198000D0185B1AD318E36023006060A2600020C7
:10199000FF224433A0631A705A7085420ED1236926
:1019A000834207D02000103000F08AFC002801D0CC
:1019B000FFF7FAFDFFF710FE012070BD2000103088
:1019C000FFF77BFD20002430FFF777FDF2E770B5CD
:1019D00006000D00002801D172B6FEE70800704332
:1019E0004830FFF79BFE041E08D0002D08D1206070
:1019F000E663256401212000FFF7B5FF200070BDDC
:101A0000030048330360F3E7F0B585B004000091AC
:101A100001921D00002801D172B6FEE7009B002B49
:101A200000D06FE0036C002B00D16BE072B6FEE7D4
:101A3000019E002E03D1FFF7CFFD002054E0002FC0
:101A400002D102A800F078FCFFF7C6FD00F094FA7E
:101A5000FFF7B6FD2200443213785BB2013301D1A7
:101A6000002313702200453213785BB2013301D199
:101A700000231370FFF7B0FD01A902A800F06CFC71
:101A8000002839D1FFF79CFDA76BE66BFFF7A4FD9B
:101A9000B7422BD120000199103000F0FFFB20004D
:101AA000FFF72CFF00F0F4FA002801D1FFF77CFDCE
:101AB0000127FFF785FDA36BE26B934201D3022D53
:101AC000B6D12A0000992000FFF7CEFE636A002BF2
:101AD00003D02000243000F0F3FB002801D0FFF7F2
:101AE00063FDFFF779FD012005B0F0BD2000FFF791
:101AF00005FF00F0CDFADBE72000FFF7FFFE00F066
:101B0000C7FA9AE7022D02D1E36B012B09D100F04D
:101B100059FC00270028CCD1019F002FC9D072B6F4
:101B2000FEE772B6FEE7F0B585B00400019117003C
:101B30001E00002801D172B6FEE7019B002B19D1CF
:101B4000036C002B16D072B6FEE72000243000F0A4
:101B5000B7FB00282CD0002F2AD001253D60039828
:101B6000FFF74DFD280005B0F0BD0135029B6DB2B9
:101B70001D701DE0022E02D1E36B012B1AD1FFF77D
:101B800039FDA36BE26B0390934202D30025022E32
:101B9000E5D12300453302931D7832006DB20199DF
:101BA0002000FFF761FE6B1CDFD1636A002BCCD1F4
:101BB0000125D4E772B6FEE7F0B585B004000F004A
:101BC00001920093002801D172B6FEE7002900D0EF
:101BD0008EE0036C002B00D18AE072B6FEE7636AE8
:101BE000E660002B6CD02000243063E0019D002DC6
:101BF00003D1FFF7F1FC280065E0002E02D102A816
:101C000000F09AFBFFF7E8FC00F0B6F9FFF7D8FC0C
:101C10002200443213785BB2013301D100231370E8
:101C20002200453213785BB2013301D100231370D7
:101C3000FFF7D2FC01A902A800F08EFB00284AD1D0
:101C4000FFF7BEFCA56BFFF7C7FC002D3DD1236855
:101C5000002B06D1FFF7B4FC606800F0C3FBFFF770
:101C6000BBFC20000199243000F018FB2000FFF796
:101C700045FE00F00DFA002801D1FFF795FC012682
:101C8000FFF79EFCA56B002DB0D039002000E66860
:101C9000FFF722FE009B002BA1D12368013DA56325
:101CA000002B02D100F00AFC60602369002B07D0F2
:101CB0002000103000F004FB002801D0FFF774FC76
:101CC000FFF78AFC012005B0F0BD2000FFF716FEEB
:101CD00000F0DEF9D3E72000FFF710FE00F0D8F99E
:101CE000FFF76EFCA56BFFF777FC002DC7D182E7ED
:101CF00000F068FB00260028C2D1019E002EBFD054
:101D000072B6FEE7074A13681968074B002903D12A
:101D1000012252421A6070471268D268D268526833
:101D2000F8E7C046A40C00207C0D0020F8B50400A4
:101D3000144B154D1E6828680F000430FFF7EEFBAA
:101D4000631C07D1002F05D0296810480431FFF724
:101D5000C2FBF8BD2B6834195C60A64206D90C4B57
:101D6000186829680431FFF7C2FBF2E7094B1868CD
:101D700029680431FFF7BBFB074B1A689442E8D28D
:101D80001C60E6E7C40D0020A00C00209C0D002084
:101D9000A80C0020A40C00207C0D0020F0B59500BC
:101DA00085B0029028000F000393FFF7B7FC061ED2
:101DB00000D18EE05420FFF7B1FC041E00D185E075
:101DC0000723043D066376199E43002300961A00FC
:101DD000F95C3432A154FA5C002A02D00133102B92
:101DE000F5D1230000250A9E43331D70062E00D92D
:101DF0000626231D1800E6626664A5640193FFF7BA
:101E000067FB20001830FFF763FB07239E1B2300AE
:101E100050332461A6616462E564039A1D700299DF
:101E20000098FFF7AFFB0B9B2060002B00D01C60DD
:101E3000FFF7C6FB2E4B2F4D1A6801321A602A6835
:101E4000002A49D12C601B68012B1DD12A4E370076
:101E50008C3730001436FFF730FBB742F9D1274EEC
:101E60003000FFF72AFB264F3800FFF726FB2548F6
:101E7000FFF723FB2448FFF720FB2448FFF71DFB57
:101E8000234B1E60234B1F60234A136801331360EA
:101E9000224AE36A11688B4200D913601420584328
:101EA000154B01991818FFF716FBFFF795FB1C4B14
:101EB00001261B68002B06D02B68DA6AE36A9A4277
:101EC00001D2FFF771FB300005B0F0BD3000FFF725
:101ED000A7FC01267642F6E7114B1B68002BD3D1F5
:101EE0002B68E26ADB6A9342CED82C60CCE7C0460E
:101EF000380D0020A00C0020AC0C0020500D00205C
:101F0000640D0020840D0020B00D00209C0D0020E9
:101F1000A40C0020A80C0020480D00204C0D00202F
:101F2000980D002013B500240D4B009401938022DE
:101F300023000C490C48FFF731FF01280BD172B682
:101F400001220A4B52421A60094B1860094B1C606F
:101F5000FFF7A6FB13BD431CFCD172B6FEE7C046DB
:101F6000780D002064370008C92100087C0D00208E
:101F7000980D0020C40D0020024A1368013313603D
:101F80007047C046440D0020014B18687047C0469A
:101F9000C40D0020334BF7B51B68002B35D1324BF5
:101FA0001C6801341C60002C11D1304B1A68126877
:101FB000002A01D072B6FEE72D4A19681068186031
:101FC00011602C4A136801331360FFF79BFE2A4F00
:101FD00000263B689C4207D3244B1A681268002AEB
:101FE00019D101235B423B60244B1B68DA6A14233E
:101FF0005343234AD358012B00D90126214B1B6898
:10200000002B00D001263000FEBD1F4A00261368B9
:1020100001331360F2E71B68DB68DD686B689C4284
:10202000E1D32B1D18000193FFF778FAAB6A002B60
:1020300003D028001830FFF771FA144BE86A1A68C9
:10204000904200D91860142358430D4B291D1818CD
:10205000FFF741FA094BEA6A1B68DB6A9A42BBD375
:102060000126B9E7440D0020C40D0020A40C002077
:10207000A80C0020800D00207C0D0020A00C00206A
:10208000AC0C0020C80D0020400D00204C0D00209D
:10209000F8B52B4C2368002B01D172B6FEE7FFF791
:1020A0008FFA2368013B23602468002C04D00024AD
:1020B000FFF792FA2000F8BD224B1B68002BF6D0E8
:1020C00014260127204B1A68002A1AD1002C01D0AF
:1020D000FFF718FE1D4D2C68002C0AD00126FFF7D3
:1020E00059FF002801D01A4B1E60013C002CF6D18C
:1020F0002C60174B1B68002BD9D0FFF755FA012431
:10210000D6E7DB68DC682000251D1830FFF706FAEB
:102110002800FFF703FA0F4BE06A1A68904200D9D3
:10212000186070430C4B29001818FFF7D4F90B4BBB
:10213000E26A1B68DB6A9A42C4D3054B1F60C1E7A1
:10214000440D0020380D0020840D0020400D00209B
:10215000C80D00204C0D0020AC0C0020A00C00206D
:1021600070B505000C00002801D172B6FEE7002909
:1021700001D172B6FEE7124B1E68002E01D072B676
:10218000FEE7FFF7F9FE0F4B2A681868A418904283
:1021900005D2A24206D9A042B641764202E001260B
:1021A000A242F8D92C60002E03D0201A0021FFF79C
:1021B000BDFDFFF76DFF002801D1FFF7F5F970BDF8
:1021C000440D0020C40D002070B5154C2368002B71
:1021D00006D1144B1B68012BF7D9FFF7E5F9F4E79B
:1021E000FFF7CAFE104D2E68FFF752FF002EECD00D
:1021F000FFF7E6F9EB68DD68281DFFF78FF90B4A5A
:102200001368013B13602368013B2360FFF7E4F987
:10221000286BFFF705FB2800FFF702FBD5E7C04658
:102220003C0D0020AC0C0020B00D0020380D00202B
:10223000154B30B51A68154B002A02D001221A60DE
:1022400030BD142412481A60026812492300534317
:102250005D58002D12D0CC18656808336D68CB1816
:1022600065609D4201D16B68636014235343C918B4
:102270004B68D968084B19600260E1E7002A01D178
:1022800072B6FEE7013AE1E7440D0020C80D0020D8
:102290004C0D0020AC0C0020A00C002010B50C0050
:1022A000002801D172B6FEE7044B19681831FFF718
:1022B0001EF901212000FFF739FD10BDA00C002000
:1022C000C36870B5DC68002C01D172B6FEE725004A
:1022D00018352800FFF722F9114B1B68002B1BD182
:1022E000251D2800FFF71AF90E4AE36A11688B4290
:1022F00000D913601420290043430B48C018FFF78E
:10230000EAF80A4BE26A1B680020DB6A9A4202D9AB
:10231000074B0130186070BD29000648EFE7C04642
:10232000440D00204C0D0020AC0C0020A00C00201F
:10233000C80D0020840D0020002801D172B6FEE7F0
:10234000034B1B680360034B1B6843607047C04628
:10235000800D0020C40D002070B504000D00002881
:1023600001D172B6FEE7002901D172B6FEE7FFF790
:1023700027F90F4B002619682B685A1C13D00D4AF9
:10238000266810686268864202D0012691420AD20D
:10239000881A0126834206D95B1A9B182B602000FD
:1023A000FFF7CAFF0026FFF717F9300070BDC046DF
:1023B000C40D0020800D00200122014B1A607047DF
:1023C000C80D0020054B01201B68002B04D0044BD6
:1023D00018684342584140007047C046980D00209D
:1023E000440D0020F8B5041E26D0164FC16A3B6884
:1023F000DB6A994220D28369002B04DB07223B6809
:10240000DB6AD21A826114234B430F4E6269F318C0
:102410009A4212D1251D2800FFF780F83B680B4A2D
:10242000DB6A1168E3628B4200D9136014205843C1
:1024300029003018FFF74FF8F8BD3B68DB6AE3620C
:10244000FAE7C046A00C0020AC0C00204C0D002088
:1024500070B5041E01D1002070BD154B1B68984259
:1024600001D072B6FEE7836C002B01D172B6FEE795
:10247000C26A416C013B83648A42ECD0002BEAD1F2
:10248000051D2800FFF74AF80723606C1B1AA3619B
:10249000084BE0621A68904200D918601423434345
:1024A00005482900C018FFF716F80120D4E7C046F8
:1024B000A00C00204C0D0020AC0C0020044B1A682E
:1024C000002A03D019688A6C01328A641868704740
:1024D000A00C002010B500F075FA80210A4889018F
:1024E000FDF7F2FF0100094800F07BF8084B1A687D
:1024F00001321A601968074A914204D900221A6011
:10250000054B01321A7010BD00080048F40D002080
:10251000CC0D002010270000D00D002010B5021EA9
:1025200000D0012290202021C005FDF7D3FF10BD6F
:1025300010B5021E00D0012290201021C005FDF729
:10254000C9FF10BD07B56A460B00D11D0B70FA23F9
:1025500001225B000148FEF7FFFE07BD280F0020A7
:10256000024B0233DB7F037000207047081000200D
:1025700070B5050008000C00FDF7C6FDFA2382B215
:102580005B0028002100FEF7E7FE70BD0200EC3280
:102590001278030012090020052A11D11A00EE3228
:1025A00011780132127809020A439A210020890029
:1025B0008A4205D9E833196804308A4200D01A608B
:1025C0007047C9B2531F017159424B41063ADBB201
:1025D0004370531E9A410023D2B242708370C3707D
:1025E00070474378002B01D0002904D04378002B9A
:1025F00025D1002923D04379DBB25A1CD2B24271D3
:102600000279934218D34378002B06D0002904D1D5
:1026100003238371023B8370C1704378DBB2002BCC
:1026200006D1002904D002228271013AC27083705F
:10263000002341704371704704238371FBE781716C
:10264000F9E770B5642504008360049B0160C360F2
:10265000069B426003612A000021143000F033FC25
:1026600020002A000021783000F02DFC23000020FB
:10267000DC3318705870059BE034236070BD10B5D2
:102680000400002023689847236801209847636866
:102690000120984710BD73B56B460400DD1D28006E
:1026A000E36898472000DC300178C9B200291AD1CC
:1026B0002300DD331A782D78D2B2561CF6B2A21858
:1026C0001E7015751A78622A00D9197000211A78BF
:1026D000A21811750D2D06D1E43422788A4203D157
:1026E0001A700123037073BD2170FCE7F0B589B047
:1026F0001422002103A800F0E6FB80201E4BC0033B
:1027000059699027014359615A69FF0502408020A9
:102710000092009A596980020143596180215A69E7
:10272000C90202400192019A5A69144D0A435A6142
:102730005B6938000B40029301223021029BFDF7B8
:10274000C9FE002228000221FDF7C4FE0024302328
:10275000012603A938000393049605940694FDF717
:1027600003FE022303A9280003930496059406940C
:10277000FDF7FAFD09B0F0BD00100240000400486A
:102780002023024A11880B4313807047FC0D002060
:10279000F0B505008DB00F0016000021282202A818
:1027A00000F091FB0A212800FDF7CAFC0001C4B229
:1027B0000A212800FDF74AFD3800CDB20A21FDF7B5
:1027C000BFFC0001C3B20A2138000093FDF73EFDB3
:1027D0003000CFB20A21FDF7B3FC0001C3B20A21D9
:1027E00030000193FDF732FD6419231CE4B2C9B235
:1027F000232C00D9232302AA1370009BDF193B1C52
:10280000FFB2592F00D9592302AA5370019B5918BE
:102810000B1CC9B2592900D9592302AA93708023ED
:1028200001221B06079302AB9B18DA77802302A9CB
:102830005B0005480B93FEF735FB002801D000F044
:10284000EFF90DB0F0BDC046080F002070B586B09E
:1028500001AE14220021300000F035FB1F4D204B4B
:1028600000242B604F23AB60F4232800FF33009437
:102870006C60EB602C616C61AC61FEF7DBF9A0422F
:1028800001D000F0CDF901223100280034707470BD
:10289000B470F4603461FEF72DFA002801D000F026
:1028A000BFF901246B466A461C7002235370002353
:1028B0009470D370694622002800FEF78FFA002832
:1028C00001D000F0ADF9074B01201C70064B1A78BF
:1028D000064B1978FFF75CFF06B070BD080F0020AB
:1028E00000280040D10D0020D30D0020D20D002083
:1028F0000B480C4B10B5036096239B0143600C22E0
:10290000002342618360C36003618361C36103622A
:102910004362FEF7B3FC002801D000F081F910BD3E
:10292000280F0020003801400B480C4B10B5036005
:1029300096239B0143600C22002342618360C360A5
:1029400003618361C36103624362FEF797FC002861
:1029500001D000F065F910BD980F00200044004040
:1029600073B56B46DD1DFF2300260F4C2B700268EC
:102970000E4B26609A420ED10D48FFF78CFE0122C5
:102980000C490D48FEF724FB0C483300226829004F
:102990000068FFF7C8F82368002B03D08022084B9B
:1029A00052051A6073BDC046DC0D0020003801409E
:1029B000100E002029100020280F0020D80D002024
:1029C00004ED00E0024A1368013313607047C0460B
:1029D000E00D002010B5102496B0302200210AA886
:1029E00000F071FA2200002101A800F06CFA142214
:1029F000002105A800F067FA0A230AA80A93093BF8
:102A00000D930E941193FDF773FD002801D000F093
:102A100007F90021072301A8019302910391049172
:102A2000FDF77EFF002801D000F0FAF8074B05A85B
:102A300005930023079380239B000693FEF71CF861
:102A4000002801D000F0ECF816B010BD0100010024
:102A500037B5FFF799FA6B46FA25DC1C0223019083
:102A60002370AD00290001A8FFF77AFB08482A006F
:102A7000210000230068FEF7C7FF237805480133D3
:102A80002370002300681A001900FEF7BDFFE9E774
:102A9000D80D0020D40D002070B58AB06B46DC1D27
:102AA00000230225237029001448FDF70DFD424242
:102AB00042412900D2B21148FDF70CFD002301224A
:102AC0000F48524219000068FFF776F80128EAD152
:102AD000FA220C482100002392000068FFF76CF8EE
:102AE000094E0A49012805D10949227802A800F0B7
:102AF000F3F902A93000FFF73BFDD4E700040048DA
:102B0000D40D0020D80D0020980F00207B3700083E
:102B10006937000870B586B0FDF7B0FBFFF75AFFC4
:102B2000FFF7E4FDFFF792FEFFF7E2FEFFF7FCFE82
:102B3000FFF7DCFDFFF78AFEFFF7DAFEFFF7F4FE92
:102B4000012226492648FEF743FA06222821254875
:102B5000FFF737FD0024012580222300520022497F
:102B6000019400952148FFF719F9802223005200B3
:102B70001F49019400951F48FFF710F91E4B1F4E87
:102B800002931F4B1F4A01931F4B204900933000B3
:102B90001F4BFFF756FD3300DE3318703000FFF790
:102BA0006EFD80204000FDF79BFC032221002800E1
:102BB000FEF70DFF174B2200186029002800FEF7D2
:102BC00006FF154B1860FEF76BFC144A0594059B35
:102BD0009342FBDC059B01330593F8E729100020A5
:102BE000280F0020F40D00208C370008512A00081F
:102BF00094370008992A00088D250008100E00203F
:102C0000004BE23631250008612500081D2500082B
:102C100045250008D40D0020D80D00209F86010016
:102C20007047000007B501200B4B9969014399617A
:102C300080219A69490502400092009ADA690338B6
:102C40000A43DA61DB6900220B4001930321019BF7
:102C5000FDF732FB07BDC04600100240094B026879
:102C600010B59A420DD18023074A1B02116A022037
:102C70000B43136203210022FDF71EFB0220FDF728
:102C80004BFB10BD002800400010024010B50400AE
:102C90008AB01422002105A800F015F92368284AFB
:102CA00093422AD18020274BC00199690143996141
:102CB00080219A69890202400192019A5A69902002
:102CC0000A435A615B69C0050B400293029BC02313
:102CD000DB000593022306930133089305A9023B09
:102CE0000993FDF741FB00221B201100FDF7E4FAD8
:102CF0001B20FDF711FB0AB010BD134A9342FAD115
:102D00008022104B9202D96990201143D961D96970
:102D1000C0051140039103995969114359615B69D9
:102D200005A91A400492049B0C2305930A3B0693C1
:102D300001330893023B0993FDF716FBDBE7C0461E
:102D40000038014000100240004400407047FEE798
:102D500010B5FDF7A3FAFEF7A8FBFDF701FB10BDC8
:102D600010B50248FDF714FF10BDC046080F002043
:102D7000064810B50368D9691A682023194203D0A0
:102D80001A4201D0FEF74EFB10BDC046280F0020AE
:102D90000121134B13481A680A431A605A6802400B
:102DA0005A601A68104802401A601A680F480240B8
:102DB0001A605A680E4802400F205A60DA6A82434D
:102DC000DA621A6B0B4802401A638022186B0243C6
:102DD0001A635A6B8A435A6300229A607047C0464E
:102DE000001002400CB8FF08FFFFF6FEFFFFFBFFDC
:102DF000FFFFC0FF6CFEFFFF1348854604200168FB
:102E0000090E1F22914205D110480121016010488E
:102E1000002101600F481049104A002302E0D458F5
:102E2000C4500433C4188C42F9D30D4A0D4C00230E
:102E300001E013600432A242FBD3FFF7A9FF00F0C8
:102E400015F8FFF767FEFEE7001800201810024093
:102E500000000140000000206C000020F83700084E
:102E60006C00002030100020FEE7000070B5002646
:102E70000C4D0D4C641BA410A64209D1002600F095
:102E800053FC0A4D0A4C641BA410A64205D170BD28
:102E9000B300EB5898470136EEE7B300EB5898477C
:102EA0000136F2E7F0370008F0370008F037000885
:102EB000F4370008002310B59A4200D110BDCC5C55
:102EC000C4540133F8E703008218934200D17047DD
:102ED00019700133F9E700000EB410B59DB002A9D6
:102EE000029008610B4882248860486101204042BA
:102EF0001FABC881084804CBA400006801938C81F3
:102F000000F06EF80023029A13701DB010BC08BCCC
:102F100003B01847FFFFFF7F08000020F0B58E6860
:102F200085B007000C00039201939E4239D890238C
:102F30008A89DB001A4234D00325096923685B1AA9
:102F40000293636902985D43EB0F5D19019B6D105D
:102F500001331B18AB4200D91D00530532D529009F
:102F6000380000F031FB061E09D10C233B604023E2
:102F70000120A28940421343A38105B0F0BD029A0B
:102F80002169FFF797FFA389144A1A40802313434E
:102F9000A381029B2661F61826606561019EED1AE9
:102FA000A560019BB34200D21E0032000399206845
:102FB00000F0ADFAA36800209B1BA36023689E1954
:102FC0002660DAE72A00380000F05CFB061EE0D13C
:102FD0002169380000F0AEFAC7E7C0467FFBFFFF6B
:102FE000F0B59FB0029005938B890F0016001B0669
:102FF00011D50B69002B0ED1402100F0E5FA3860A5
:103000003861002805D10C23029A013813601FB0E3
:10301000F0BD40237B61002306AD6B6120336B76EE
:103020001033AB7634002378002B47D1A31B0493D5
:103030000DD0A31B320039000298FFF76FFF431C2D
:1030400000D1B5E06A69049B944663446B612378C0
:10305000002B00D1ACE00122002352426A6002A999
:103060005432521801342B60EB60AB601370AB65C7
:10307000584E05222178300000F03EFA621C0028EC
:1030800020D12968CB0604D5532302AE20309B19EA
:1030900018700B0704D553232B2002AE9B19187010
:1030A00023782A2B16D000200A21099B2278303A57
:1030B000092A55D9002815D0099313E0252BB5D03E
:1030C0000134B0E70123801B8340296814000B43BF
:1030D0002B60CDE7059B181D1B680590002B39DB85
:1030E0000993140023782E2B0BD16378621C2A2BB2
:1030F0003ED1059B02341A1D1B680592002B34DB60
:103100000793354E21780322300000F0F5F90028AE
:1031100006D04023801B83402A68013413432B6070
:10312000217806222D48661C297600F0E5F9002852
:1031300046D02B4B002B2FD12968059B0722C905B0
:1031400028D59B189343083305936B69039A9B1802
:103150006B6167E75B42EB6002230B432B60C0E7C8
:103160004B4301349B180120A0E701235B42C7E7D2
:10317000002314000A201A006B60217830390929D5
:1031800003D9002BBDD00792BBE74243013452184C
:103190000123F2E70733D5E705AB00933A00114B63
:1031A0002900029800E000BF0390039B0133CCD1BB
:1031B000BB890B985B0600D429E70120404226E733
:1031C00005AB00933A00074B2900029800F07AF80B
:1031D000EAE7C046BC370008C2370008C637000817
:1031E000000000001D2F0008F7B5150001938A6844
:1031F0000B6900900C00934200DA130022002B6050
:1032000043321278002A01D001332B6023689B06D9
:1032100002D52B6802332B60062723681F4027D076
:10322000230043331B785A1E93412268920630D400
:103230002200019943320098089EB047431C25D0D4
:10324000062320682A68E16803400025042B03D187
:103250008D1AEB43DB171D40A3682269934201DD01
:103260009B1AED180027BD4220D1002010E0013745
:10327000E3682A689B1A9F42D2DA2200012319329E
:1032800001990098089EB047431CF0D101204042AC
:10329000FEBD3020E1184331087021005A1C453131
:1032A0000978A218433202331170C1E722000123CA
:1032B0001A3201990098089EB047431CE6D00137A6
:1032C000D1E70000F0B58BB006920A0043320793B5
:1032D000059004920A7E0C00109B6E2A00D18FE0AC
:1032E00017D8632A2CD008D8002A00D199E0582A90
:1032F00054D026004236327029E0642A01D0692A6F
:10330000F7D121681A68080623D5111D19601568C0
:1033100025E0732A00D188E008D86F2A29D0702AC6
:10332000E7D1202209680A43226003E0752A20D0F1
:10333000782ADED122007821453211706C4A30E0C3
:103340000E001A684236111D19601368337001238C
:1033500079E04906D9D5111D19600023D55E002DED
:1033600003DA2D23049A6D421370624B0A270393EC
:103370002FE020681968050603D5081D18600D6840
:1033800005E04006F9D50D68081D1860ADB2594B2F
:10339000082703936F2A18D00A2716E045310A70D0
:1033A000544A03921A682168101D186015680806AF
:1033B00022D5CB0702D52023194321601027002DE9
:1033C00003D1202322689A43226023000022433342
:1033D0001A706368A360002B5CDB042221689143B0
:1033E0002160002D58D1049E002B64D02600039B41
:1033F00042361B7833705EE04806DAD5ADB2D8E7C6
:1034000009681A68080605D5111D196013686269F4
:103410001A6006E04906F7D5111D19601368A28AE3
:103420001A800023049E236154E01A68111D19605C
:10343000166800216268300000F05EF8002801D0B4
:10344000801B6060636823610023049A137041E06D
:103450002369320006990598079DA847431C43D06D
:10346000236800259B070FD4099BE06898423DDA4A
:1034700018003BE022000123193206990598079EA7
:10348000B047431C30D00135E368099A9B1A9D422E
:10349000F0DBE9E7002DA9D0049E28003900FCF7F5
:1034A000D5FE039B013E5B5C280033703900FCF7BE
:1034B00047FE051EF1D1082F09D12368DB0706D589
:1034C00063682269934202DC3023013E3370049B1F
:1034D0009B1B2361079B09AA00932100069B05986B
:1034E000FFF782FE431CB3D1012040420BB0F0BD78
:1034F000DE370008CD370008C9B28218904201D1EA
:103500000020704703788B42FBD00130F6E710B5FE
:10351000884202D98B18984208D300239A4207D0D8
:10352000CC5CC4540133F9E78B5C8354013AFBD281
:1035300010BD000070B50500002910D00C1F2368D5
:10354000002B00DAE418280000F0D4F81D4A1368B4
:10355000002B05D163601460280000F0CCF870BD2A
:10356000A34209D9216860188342F3D118685B68C7
:1035700041182160EEE713005A68002A01D0A242E8
:10358000F9D919685818A0420BD1206809185818A1
:1035900019608242E0D110685268411819605A607F
:1035A000DAE7A04202D90C232B60D5E72168601826
:1035B000824203D1106852684118216062605C60E9
:1035C000CAE7C046E40D0020032370B5CD1C9D431F
:1035D000083506000C2D1ED20C25A9421DD830003E
:1035E00000F088F8254A14682100002919D1244CDC
:1035F0002368002B03D1300000F06AF82060290016
:10360000300000F065F8431C2CD10C2330003360EF
:1036100000F071F803E0002DDFDA0C2333600020A6
:1036200070BD0B685B1B1AD40B2B03D90B60CC1835
:10363000256003E08C420ED163681360300000F017
:103640005AF8200007220B30231D9043C31AE7D0FD
:103650005A42E250E4E74B6863600C00EEE70C006E
:103660004968C2E70323C41C9C43A042E0D0211A4E
:10367000300000F02DF8431CDAD1C6E7E40D00203D
:10368000E80D0020F8B507000D001600002905D14F
:103690001100FFF799FF04002000F8BD002A03D1B4
:1036A000FFF748FF3400F7E700F026F82C008642C9
:1036B000F2D931003800FFF787FF041EECD0290053
:1036C0003200FFF7F7FB29003800FFF733FFE3E78D
:1036D000002370B5064C05000800236000F014F8C4
:1036E000431C03D12368002B00D02B6070BDC04663
:1036F0002C100020704770470B1F1B68181F002BF1
:1037000001DA0B58C0187047054B020019680029F0
:1037100001D104491960186882181A607047C046C0
:10372000EC0D002030100020F8B5C046F8BC08BCF5
:103730009E467047F8B5C046F8BC08BC9E46704728
:1037400002030405060708090A0B0C0D0E0F1010E2
:103750000102030405060708090A0B0C0D0E0F10E1
:103760000004080249444C450064617461205265BC
:1037700063656976652025640D0A006661696C20C1
:10378000746F20726563656976650D005461736BB3
:1037900046534D005461736B54785561727444659F
:1037A00062756700000000000000000001020304D1
:1037B000060708090000000001020304232D302B36
:1037C0002000686C4C006566674546470030313222
:1037D0003334353637383941424344454600303179
:1037E00032333435363738396162636465660000D8
:0437F000E9000008E4
:0437F400C100000808
:1037F800AAAAAAAA00127A000C0000200000000061
:1038080000000000000000000000000000000000B0
:1038180000000000000000000000000000000000A0
:103828000000000000000000000000000000000090
:103838000000000000000000000000000000000080
:103848000000000000000000000000000000000070
:0C38580000000000000000000000000064
:0400000508002DF9C9
:00000001FF
