:020000040800F2
:100000000018002041300008A12F0008A32F00088D
:1000100000000000000000000000000000000000E0
:10002000000000000000000000000000551800085B
:100030000000000000000000C1180008A52F000803
:10004000B130000800000000B52F0008B1300008F2
:10005000B1300008B1300008B1300008B1300008FC
:1000600000000000B1300008C52F0008B1300008C2
:10007000B1300008B1300008B130000800000000C5
:10008000B13000080000000000000000B13000089E
:1000900000000000B1300008B1300008B1300008A5
:1000A00000000000B130000800000000C92F000867
:1000B000B13000080000000000000000B13000086E
:1000C00010B5064C2378002B07D1054B002B02D02E
:1000D000044800E000BF0123237010BD0800002089
:1000E0000000000020310008044B10B5002B03D0A5
:1000F0000349044800E000BF10BDC04600000000F6
:100100000C000020203100080023C25C0133002ACB
:10011000FBD1581E7047000002B4714649084900DF
:10012000095649008E4402BC7047C04602B471466D
:1001300049084900095C49008E4402BC7047C0462A
:10014000002243088B4274D303098B425FD3030A16
:100150008B4244D3030B8B4228D3030C8B420DD329
:10016000FF22090212BA030C8B4202D312120902B7
:1001700065D0030B8B4219D300E0090AC30B8B42F5
:1001800001D3CB03C01A5241830B8B4201D38B03A3
:10019000C01A5241430B8B4201D34B03C01A524148
:1001A000030B8B4201D30B03C01A5241C30A8B428B
:1001B00001D3CB02C01A5241830A8B4201D38B0276
:1001C000C01A5241430A8B4201D34B02C01A52411A
:1001D000030A8B4201D30B02C01A5241CDD2C3098C
:1001E0008B4201D3CB01C01A524183098B4201D308
:1001F0008B01C01A524143098B4201D34B01C01AF3
:10020000524103098B4201D30B01C01A5241C3086A
:100210008B4201D3CB00C01A524183088B4201D3D9
:100220008B00C01A524143088B4201D34B00C01AC5
:100230005241411A00D20146524110467047FFE731
:1002400001B5002000F006F802BDC0460029F7D035
:1002500076E770477047C04610B5040000F060FCB8
:10026000FA218900FFF76CFF00F070F801200022EE
:100270002100404200F030F8002010BD1023064A53
:1002800010B5116803200B431360FFF7E5FF02F080
:10029000D9FD002010BDC04600200240024A13686C
:1002A000013313607047C046780D0020014B186879
:1002B0007047C046780D002037B50190FFF7F6FF74
:1002C000019C0500631C5A1E9341E418FFF7EEFFE2
:1002D000401BA042FAD337BD70B58901002814DA5B
:1002E0000F23C0B20340083B114A9B089B009B1898
:1002F000032210409040FC3215001140854081409F
:10030000DC69AC432143D96170BD032583082840D3
:10031000A840FC352E00074A9B009B18C02286404F
:100320002940814092009C58B44321439950EBE707
:1003300000ED00E000E100E01F2318401E3B834079
:10034000014A13607047C04600E100E0094A431EBD
:10035000012093420DD8C021074A08485360036A20
:1003600009061B021B0A0B4303620020072390604F
:1003700013607047FFFFFF0010E000E000ED00E0B9
:1003800010B502F0B7F910BD70B504000120002CC3
:1003900028D002232068A51CEB770268124BA168C5
:1003A0001A4063680B43E1680B4321690B436169A1
:1003B0000B43A1690B43E1690B43134303600B4BF0
:1003C0001421C018FFF7BCFE094B80002064E363D2
:1003D00000200123A062E06220636063A063E41850
:1003E000EB77E07770BDC0460FC0FFFFF8FFFDBFA1
:1003F0000000024070B5841CE37F022B04D004236C
:100400008363033B180070BD0E210368056C1A68F6
:100410008A431A6001221968914319601100A940AA
:10042000C36B5960E27700248318426BDC771300BA
:10043000A242E7D090472300E4E70000F0B50B6844
:1004400087B0029300230191029ADA4001D107B0EC
:10045000F0BD01229A4003920399029A0A40009249
:1004600000D18CE0019A1021526816008E43022EB2
:100470000ED107251D40AD000139A940DC08A400BC
:100480000419276A8F4301990969A9400F4327621C
:1004900003245F00BC40E4430568013E2540AC46B0
:1004A00003251540BD4061460D430560012E0FD860
:1004B00001998668CD682640BD4035438560466811
:1004C000039915098E4301210D409D403543456038
:1004D000C56801992C408D688021BD4049052C4399
:1004E000C4600A424BD00121264C0326A5691E4058
:1004F0000D43A561A4699D080C400594059C0F243B
:100500002149AD00B6006D18B4409021AF68C9050F
:10051000A743002488420CD01C490134884208D0EB
:100520001B490134884204D01A490334884200D15F
:10053000023CB44000993C430E00AC60164CCD43E5
:1005400027683E43D10301D43E002E4026606768F1
:10055000009E3E43910301D43E002E406660A76892
:10056000009E3E43D10201D43E002E40A660E668C4
:10057000009F3743920201D42E403700E7600133D9
:1005800062E7C0460010024000000140000400483D
:1005900000080048000C00480004014000690840C1
:1005A000411E8841C0B27047002A01D08161704766
:1005B0008162FCE7024A5368184350607047C046A6
:1005C00000700040F0B5036885B00500DB072FD44C
:1005D0002B689B0700D586E02B681B0700D5C6E07B
:1005E0002B685B0700D5E9E02B68DB061AD56A6942
:1005F000BA4C0423012A00D055E1616B02260B435B
:100600006363636B1A436263FFF750FE0700636B1B
:10061000334200D140E1F821626BAB698A43DB00D1
:1006200013436363296A002900D063E1002018E0C6
:100630000C21AA4C62680A40042A0BD063680B4064
:10064000082B10D1C022636852021340802252024C
:10065000934208D123689B03BAD56B68002BB7D1AE
:10066000012005B0F0BD6B68012B13D180232268F7
:100670005B0213432360FFF719FE80260700B602D2
:1006800023683342A4D1FFF711FEC01B6428F7D9B9
:100690000320E6E7002B16D12368914A80261340F9
:1006A000236023688F4AB60213402360FFF7FEFDE4
:1006B00007002368334200D18AE7FFF7F7FDC01B2C
:1006C0006428F6D9E4E7052B05D180232268DB02F4
:1006D00013432360CAE72368814A134023602368D9
:1006E000804A1340C6E70C227C4C636813420BD04F
:1006F00063681340082B15D1C0226368520213406F
:100700008022120293420DD123689B0702D5EB6829
:10071000012BA5D1F82122682B698A43DB00134302
:10072000236059E7EA680123002A0FD022680226D5
:1007300013432360FFF7BAFD070023683342E9D172
:10074000FFF7B4FDC01B0228F7D9A1E722680226F3
:100750009A432260FFF7AAFD07002368334200D1C5
:100760003AE7FFF7A3FDC01B0228F6D990E7EA6934
:1007700001235A4C002A10D0626A02261343636296
:10078000FFF794FD0700636A334200D028E7FFF7C4
:100790008DFDC01B0228F6D97AE7626A02269A43C9
:1007A0006262FFF783FD0700636A334200D117E7F7
:1007B000FFF77CFDC01B0228F6D969E780220021E3
:1007C000464C5205E3690091134208D1E369134393
:1007D000E361E36913400393039B012300938027A4
:1007E000414E7F0033683B4206D0AB68012B13D1EA
:1007F000226A1343236230E033683B433360FFF7E0
:1008000055FD019033683B42EFD1FFF74FFD019B4F
:10081000C01A6428F6D93BE70122002B14D1236AC1
:10082000022793432362236A033293432362FFF731
:100830003DFD0600236A3B4225D0FFF737FD2B4BD9
:10084000801B9842F6D923E7052B0BD1216A013B87
:100850000B432362236A1A432262FFF727FD022714
:1008600006000DE0236A934304222362236A934324
:10087000C0E7FFF71BFD1D4B801B984200D907E71F
:10088000236A3B42F5D0009B012B00D0ACE6E36924
:10089000174A1340E361A7E6FFF708FDC01B0228D3
:1008A00000D8B4E6F4E6053203D1626B9A43626382
:1008B000B1E6626B0226134301226363636B9343C9
:1008C0006363FFF7F3FC0700636B334200D1A9E6D3
:1008D000FFF7ECFCC01B0228F6D9D9E60010024055
:1008E000FFFFFEFFFFFFFBFF0070004088130000CA
:1008F000FFFFFFEF0C22264C012063681340082BFA
:1009000000D1AEE62368234A1340236002292FD189
:10091000FFF7CCFC80260700B6042368334221D1C0
:100920000F22E36A9343EA6A1343E362696AAB6A9C
:1009300062680B43184980250A4013436360802393
:1009400022685B0413432360FFF7B0FC0600AD048C
:1009500023682B4200D069E6FFF7A8FC801B022821
:10096000F6D995E6FFF7A2FCC01B0228D5D98FE681
:10097000FFF79CFC80250600AD0423682B4200D1C4
:1009800054E6FFF793FC801B0228F6D980E6C046A8
:1009900000100240FFFFFFFEFF7FC2FF30B5124D87
:1009A00089B010222900684602F0A8FB290004AC97
:1009B00010311022200002F0A1FB0C220B494B68E1
:1009C0001A40082A0DD1CA6A0F2168469B0C0B40B9
:1009D0000A40C55CA15C0648FFF7B2FB684309B05A
:1009E00030BD0348FBE7C046383100080010024024
:1009F00000127A00F7B50122434C060023680F006D
:100A000013408B421CD33268930723D4D30729D4D5
:100A1000012322681A40974267D333683B4C5B0737
:100A20006AD4FFF7BBFF6368394A1B061B0FD35C10
:100A3000D840384B18600320FFF70EFC002008E078
:100A4000236893430B432360236813409942DAD011
:100A50000120FEBDF0202D494B688343B06803435D
:100A60004B60D3E7294D72682B68012A1AD19B038A
:100A7000EED503216B688B4313436B60FFF716FCC5
:100A800073680190012B15D10C226B681340042B65
:100A9000BED0FFF70BFC019BC01A1F4B9842F3D945
:100AA0000320D6E7022A02D19B01E2D4D0E79B07BC
:100AB000DFD4CDE7022B12D00C226B681342A7D0F3
:100AC000FFF7F4FB019BC01A134B9842F4D9E7E7F8
:100AD000FFF7ECFB019BC01A0F4B9842E0D80C22A9
:100AE0006B681340082BF3D192E722689A43226087
:100AF00022681A42ACD190E76368084A1340F26852
:100B0000134363608DE7C04600200240001002409E
:100B1000AC3100080400002088130000FFF8FFFF3C
:100B2000014B18687047C04604000020044B054A7A
:100B30005B685B055B0FD35C034A1068D840704765
:100B400000100240BC31000804000020F0B503682A
:100B500085B00500DB0328D5802200213B4C5205DF
:100B6000E3690091134208D1E3691343E361E36948
:100B700013400393039B012300938027344E7F008F
:100B800033683B422FD0C022236A92001340314E7B
:100B90003BD1236A1E406B681E43009B2662012BDB
:100BA00003D1E3692C4A1340E3612A68D30706D5D1
:100BB000032026490B6B8343A86803430B6393060A
:100BC00006D5102021490B6B8343E86803430B6370
:100BD0000020930317D580211C4A136B8B4329698E
:100BE0000B4313630FE033683B433360FFF75EFB57
:100BF000019033683B42C6D1FFF758FB019BC01AF6
:100C00006428F6D9032005B0F0BD69680A40934214
:100C1000BFD08023226A206A11005B020343236253
:100C2000236A0E483140034023622162D307B0D5C6
:100C3000FFF73CFB07000222236A1342A9D1FFF70A
:100C400035FB074BC01B9842F5D9DBE7001002408B
:100C500000700040FFFCFFFFFFFFFFEFFFFFFEFF04
:100C600088130000036810B59A680400D2040AD5FE
:100C7000DB68DB0507D501F0D5FE2168054BCA68A6
:100C8000D2B21343CB608022034B92025A610123FC
:100C9000637710BD7FFEFFFF00040140A0210268C2
:100CA000F8B5D36804008B43D360FFF7FFFAFA2747
:100CB00006002025BF002368DB682B4201D00020FE
:100CC000F8BDFFF7F3FA801BB842F4D90320F7E729
:100CD000F8B5402403680500DA68224201D00020FC
:100CE000F8BD01225242DA60FFF7E0FAFA27060067
:100CF000BF002B68DB682342F1D1FFF7D7FA801BD6
:100D0000B842F6D90320EBE770B5040001250028AE
:100D100018D0437FDBB2002B02D1037702F0AEF88C
:100D20000223CA226377236820005A62773A5A6204
:100D3000FFF7CEFF2368051E06D0FF225A62042368
:100D400001256377280070BD9A68174920690A4019
:100D50009A60626899680243606902430A439A6034
:100D6000E2681A61A268196912040A4380211A61B3
:100D7000DA688A43DA609B689B0606D42000FFF796
:100D80008DFF002801D02368D7E7236807491A6C34
:100D90000A401A641A6CA1690A431A64FF225A6253
:100DA00001236377CEE7C046BFFF8FFFFFFFFBFF46
:100DB0000023092803D81B011843C0B270470A3822
:100DC0000133C0B2F5E700000223F7B50D00017F43
:100DD00004001F00012932D0012143770368017705
:100DE0009B683F3128786E78AF780B40002A28D175
:100DF000002B00D1EB70FFF7DBFF01903000FFF715
:100E0000D7FF06003800FFF7D3FFEF78019B3F04C0
:100E10000743180407433602CA22236820005A6297
:100E2000773A5A62FFF754FF3E432368071E12D0F9
:100E3000FF225A62042363770023237701273800B7
:100E4000FEBD002B00D1EB70000436020643374391
:100E5000EE783604E0E71448144906401E609A68AC
:100E600028690A409A60EA68996802430A43802127
:100E70009A60DA688A43DA609B689B060BD420008C
:100E8000FFF70CFF002806D0FF2223685A620423D4
:100E900027776377D2E7FF2223685A6201236377BB
:100EA00000232377CBE7C0467F7F7F00FFFFFBFF58
:100EB0000223F7B50D00017F04001E00012931D087
:100EC0000121437701776B78E878AF782E78002A94
:100ED00048D11032134202D093430A336B70FFF7AC
:100EE00067FF01906878FFF763FF05003800FFF7A0
:100EF0005FFF019B760330431E0406432D023543FA
:100F0000CA22236820005A62773A5A62FFF7E0FE4D
:100F10002368061E08D0FF225A6204236377002349
:100F2000237701263000FEBD8021124F3D405D60D9
:100F3000DA688A43DA609B689B060BD42000FFF7CF
:100F4000ADFE002806D0FF2223685A6204232677CC
:100F50006377E6E7FF2223685A6201236377002361
:100F60002377DFE700041B0203431F4375033D4360
:100F7000C6E7C0463FFFFF000223F0B50C00017F2B
:100F8000050085B01800012900D182E001216B77AE
:100F90002B6829779B683F3120786678A7780B40CB
:100FA000002A57D1002B00D1E370FFF701FF019019
:100FB0003000FFF7FDFE06003800FFF7F9FE0700DE
:100FC000631CD87FFFF7F4FE6269E36936021343BE
:100FD000E278120413431F43019B1B041F433E434B
:100FE000CA2263682C490193A369000602932B6807
:100FF00006435A62773A5A629A6801270A409A6011
:10100000D968264AC9B20A43DA60FFF74FF903905C
:101010002B68DC683C402ED00299019ADE610A43BD
:101020005A648022996852000A439A608022996823
:1010300052010A4380219A60194A890210680843C4
:1010400010609068014391600020FF225A626F7720
:1010500028771EE0002B00D1E370E3696269000489
:1010600013431F430743E078360200043E43631CEA
:101070000643D87FB4E7FFF719F9039BC01AFA2398
:101080009B009842C4D9FF2203202B685A626877DC
:101090002C7705B0F0BDC046FFFEFFFF7FFEFFFFCF
:1010A00000040140036806491A686A300A401A6061
:1010B0009A682331FF318A439A6020230370704776
:1010C000DFFEFFFFF0B506006A3634780300022029
:1010D000202C35D10138002932D0002A30D080258B
:1010E0009C686D01AC4204D11D69002D01D1014203
:1010F00026D11D0068352F780220012F20D001381D
:1011000028705965190058310A804A80802252019E
:10111000944218D11A69002A13D113491A005C327B
:10112000118000202222D8661B6832709968213A0B
:101130000A4328709A609022196852000A431A6084
:10114000F0BDFF21EAE7002C04D11A69002AF8D08B
:101150007F21E3E7802252059442E2D11A69002AF6
:10116000F6D03F21DAE7C046FF0100007047704724
:10117000406A0023020010B55A321380083A1380E7
:10118000FFF7F5FF10BD000070B504000568C269E7
:10119000836800692968034360693F4E03433F4801
:1011A000134301400B432B606B683D49206A0B40A1
:1011B000E1680B436B60A369A968034339480140A8
:1011C0000B43AB6080231B02B54210D1032036498C
:1011D000096B01403548405C9A4213D0082858D822
:1011E000FEF7A4FF375742574B5757575000304927
:1011F0008D424CD19A422CD1FFF798FC6368400095
:101200005B080BE0082821D8FEF786FFF6200520B2
:10121000182020201B0063685808264BC0186168FE
:10122000FEF78EFF83B200200F22190091430A00BF
:101230001B0721685B0F1343CB6070BDFFF7AEFB4C
:10124000DCE76368580880235B02E7E7012000239E
:10125000EAE7FFF76BFC61684B081818FEF770FFB0
:1012600080B2E8600020E8E76168134B4808C018C6
:10127000FEF766FF80B2F060F4E7FFF78FFB61686E
:101280004B08F4E7802361681B024808EFE79A42A5
:10129000DCD00120D1E7C04600380140F369FFEF00
:1012A000FFCFFFFFFFF4FFFF00100240583100089E
:1012B000004400400024F40000127A00436A30B574
:1012C000DA0706D50168284C4A682240846A22431E
:1012D0004A609A0706D50168244C4A682240C46ACD
:1012E00022434A605A0706D50168214C4A682240C9
:1012F000046B22434A601A0706D501681D4C4A68F0
:101300002240446B22434A60DA0606D501681A4C33
:101310008A682240846B22438A609A0606D5016857
:10132000164C8A682240C46B22438A605A0610D544
:101330000168134D4A68046C2A4022434A608022A7
:101340005203944205D14A680E4C2240446C224319
:101350004A601B0606D502680B4953680B40816C36
:101360000B43536030BDC046FFFFFDFFFFFFFEFF94
:10137000FFFFFBFFFF7FFFFFFFEFFFFFFFDFFFFF31
:10138000FFFFEFFFFFFF9FFFFFFFF7FF70B5041E9A
:1013900001D1012070BD050069352B78DBB2002B2F
:1013A00004D102006832137001F080FD2423012172
:1013B00022682B70136820008B431360FFF7E4FE54
:1013C0000128E6D0636A002B02D02000FFF776FFE9
:1013D00023680B495A6800200A4008215A609A681D
:1013E0008A439A60012219680A431A602200202366
:1013F000E0666A3268342B7013702070CAE7C0460A
:10140000FFF7FFFFF8B504000E0015001F0022686B
:10141000D36933409B1B59424B41AB4201D0002062
:1014200018E0069B0133F3D0069B002B13D12368F1
:101430000C491A6803200A401A609A68A331FF31E8
:101440008A439A602200202369321370537000236C
:1014500068342370F8BDFEF729FF069BC01B83424A
:10146000D5D2E4E75FFEFFFFF0B5070085B0039338
:1014700069373B7804000D0016000220202B46D16E
:101480000138002943D0002A41D08023A2685B01A3
:101490009A4204D12369002B01D1014237D12300A4
:1014A00068331A780220012A31D001221A700023F1
:1014B000E36621333B70FEF7F9FE230050331E80B4
:1014C0005E80802602907601210052310A8892B215
:1014D000002A0DD1039B402100932000029BFFF7BF
:1014E00091FF002812D1202368343B7020700EE059
:1014F0000B880022013B9BB20B80039B8021009351
:101500002000029BFFF77EFF002802D0032005B0D9
:10151000F0BDA3682268B34208D12369002B05D12E
:101520002B880235DB05DB0D1385CDE72B780135E4
:101530001385C9E7030030B569331B780200022028
:10154000212B0FD114005234238811689BB2002B39
:1015500009D10A687E3082430A604022086802434B
:101560000A60002030BD802095684001D36C854220
:101570000DD1106900280AD118880233C005C00DAA
:101580000885D3642388013B9BB22380E9E7581C7C
:10159000D0641B780B85F5E74021026810B513680D
:1015A0008B4313600300202269331A70FFF7DEFDBE
:1015B000002010BD020070B56A321178036822293C
:1015C0002DD1010080245C310D88998C6401294063
:1015D0008568436DA5421ED10469002C1BD119807A
:1015E00002334365010000245A310B88013B9BB252
:1015F0000B80A3420DD103680C4D19682940196076
:1016000099682335FF35A94399602023137001F0B1
:10161000F9FA200070BD5C1C44651970E2E70822ED
:10162000996902240A439A61F3E7C046DFFEFFFF8F
:101630000F2270B504000068C36901681A4008D120
:1016400020252B4205D0294203D02000FFF7B2FF0E
:1016500070BD8568002A60D00122154003D1902614
:101660007600314259D0134205D0CE0503D502622F
:10167000E66E3243E2660222134206D0002D04D009
:101680000262E66E92183243E2660422134206D0EA
:10169000002D04D00262E66E023A3243E2661A0777
:1016A00008D58A0601D4002D04D008220262E06E1B
:1016B0000243E266E26E002ACAD02022134204D01E
:1016C000114202D02000FFF775FFE36E20001B07D8
:1016D00004D423689D6840231D401AD0FFF7E2FC24
:1016E000402123689A680A420FD09A68606E8A4344
:1016F0009A60002809D0134B4363FEF77BFE002855
:10170000A6D0606E436B9847A2E72000FFF72FFD3D
:101710009EE7FFF72CFDE5669AE78022134205D08D
:10172000114203D02000FFF705FF91E7402213424A
:1017300000D18DE7114200D18AE72000FFF72CFF8E
:1017400086E7C0467111000810B500F0FBFC0020D0
:1017500010BD10B500F046FF012801D000F0D2F80E
:1017600010BD0300012208334360C36003610023FE
:1017700052428260036070470023036170474368F0
:101780009A684B608A609A68516099600368086142
:1017900001330360704703000A6830B50833541CF6
:1017A0000BD103695A684A6091608B605960036885
:1017B00008610133036030BD23005C682568AA42DC
:1017C000FAD2EFE74168826803698A6082685160F3
:1017D0005968884200D15A60002202611A68501E7E
:1017E00018607047034B1B68013301D072B6FEE7E7
:1017F00072B6FEE7000000200000000000000000BC
:101800000B4A13681868203080F30988022080F39F
:101810001488BFF36F8F3FBCAE4608BC04BC62B6F1
:101820001847C046C046C046C046C046C046C0462F
:101830003C0C002010B58024031F64041C60043B92
:1018400019600349043B1960143B40381A6010BD0D
:10185000E5170008704700008022044B52051A600B
:10186000BFF34F8FBFF36F8F7047C04604ED00E0AA
:1018700072B6044A136801331360BFF34F8FBFF38E
:101880006F8F704700000020054A1368002B01D1BC
:1018900072B6FEE7013B1360002B00D162B67047C1
:1018A00000000020EFF3108072B67047002080F334
:1018B00010887047000000000000000000000000D9
:1018C000EFF309800E4B1A6820381060F0C04446D0
:1018D0004D4656465F46F0C008B572B600F0B8FDFA
:1018E00062B60CBC116808681030F0C8A046A94662
:1018F000B246BB4680F309882038F0C81847C04676
:101900003C0C002010B5FFF7CDFF040000F052FCA6
:10191000002803D08022034B52051A602000FFF7F5
:10192000C6FF10BD04ED00E0FA21064B10B51868A3
:101930008900FEF705FC0722034B01381860034BB2
:101940001A6010BD0400002014E000E010E000E088
:10195000FF220A4B1204196810B50A431A60FF22CD
:10196000196812060A431A60FFF7DEFF0022044BD3
:101970001A60FFF745FFFFF735FFC04620ED00E096
:101980000000002010B50F4B1A68824218D35C6823
:101990001919884203D14168180009195960416832
:1019A0004418A24207D1084C2468A24203D05468CC
:1019B0001268611841600260984200D0186010BD42
:1019C0001300E1E7340C002024000020F8B50400E7
:1019D00000F0E2FB384A39481368002B1ED1384921
:1019E0000733194236D0CD189D43C0231B01C918B7
:1019F0004B1B29000025334ECB187560316007263C
:101A0000083BB3431D605D605D1A136028C12E4B17
:101A10001D602E4B1D6080231B0603600668344248
:101A200016D1002C14D02300072108330B4201D01B
:101A30008B430833002B0BD024490D68AB4207D8E9
:101A400020490C686068834207D8126894420BD121
:101A5000002528E0C0231B01CCE72768BC46002FE7
:101A6000F3D021006446EDE70A68170022680A6097
:101A7000C21A102A08D9E018410701D072B6FEE751
:101A800042606360FFF77EFF6368104AED1A1560DD
:101A90000D4A11688D4200D215601E433D0000239F
:101AA00008356660236000F003FC6B0701D072B656
:101AB000FEE72800F8BDC04624000020280C0020C6
:101AC00028000020340C0020300C00202C0C0020BA
:101AD00010B500281BD00E4A08384368126804006D
:101AE0001A4201D172B6FEE70168002901D072B630
:101AF000FEE79343436000F04FFB064A63681168BA
:101B000020005B181360FFF73DFF00F0D1FB10BD14
:101B1000280C00202C0C002070B51600026C04006C
:101B2000856B002A0AD106681000002E03D1606878
:101B300000F09EFD66600135A56370BD002E0DD1DD
:101B4000806801F0DBFAA368226C30009B186268A1
:101B5000A3609342EFD32368A360ECE7C06801F071
:101B6000CDFA236CE2685B422168D218E2608A42B7
:101B700002D26268D318E3600020022EDBD12B0072
:101B80005A1E9341ED1AD6E703001A6C10B50800EF
:101B9000002A0AD0D9685C688918D960A14201D3AB
:101BA0001968D960D96801F0A9FA10BD70B50500AF
:101BB0002E004536FFF75CFE347864B2002C10DC52
:101BC000FF2333702E004436FFF75EFEFFF750FE12
:101BD000347864B2002C11DCFF233370FFF754FE1D
:101BE00070BD6B6A002BEBD02800243000F078FC2D
:101BF000002801D000F0F0FC013CDEE72B69002B4F
:101C0000EAD02800103000F06BFC002801D000F072
:101C1000E3FC013CDDE770B504000D00002801D1B4
:101C200072B6FEE7FFF724FE216CE36B22684B439C
:101C3000D0185B1AD318E36023006060A260002014
:101C4000FF224433A0631A705A7085420ED1236973
:101C5000834207D02000103000F042FC002801D061
:101C6000FFF7FAFDFFF710FE012070BD20001030D5
:101C7000FFF777FD20002430FFF773FDF2E770B522
:101C800006000D00002801D172B6FEE7080070437F
:101C90004830FFF79BFE041E08D0002D08D12060BD
:101CA000E663256401212000FFF7B5FF200070BD29
:101CB000030048330360F3E7F0B585B004000091FA
:101CC00001921D00002801D172B6FEE7009B002B97
:101CD00000D06FE0036C002B00D16BE072B6FEE722
:101CE000019E002E03D1FFF7CFFD002054E0002F0E
:101CF00002D102A800F030FCFFF7C6FD00F04CFA5C
:101D0000FFF7B6FD2200443213785BB2013301D1F4
:101D1000002313702200453213785BB2013301D1E6
:101D200000231370FFF7B0FD01A902A800F024FC06
:101D3000002839D1FFF79CFDA76BE66BFFF7A4FDE8
:101D4000B7422BD120000199103000F0B7FB2000E2
:101D5000FFF72CFF00F0ACFA002801D1FFF77CFD63
:101D60000127FFF785FDA36BE26B934201D3022DA0
:101D7000B6D12A0000992000FFF7CEFE636A002B3F
:101D800003D02000243000F0ABFB002801D0FFF787
:101D900063FDFFF779FD012005B0F0BD2000FFF7DE
:101DA00005FF00F085FADBE72000FFF7FFFE00F0FB
:101DB0007FFA9AE7022D02D1E36B012B09D100F0E3
:101DC00011FC00270028CCD1019F002FC9D072B68A
:101DD000FEE772B6FEE7F0B585B004000F00019291
:101DE0000093002801D172B6FEE7002900D08EE0F2
:101DF000036C002B00D18AE072B6FEE7636AE660EE
:101E0000002B6CD02000243063E0019D002D03D115
:101E1000FFF73AFD280065E0002E02D102A800F08D
:101E20009BFBFFF731FD00F0B7F9FFF721FD220022
:101E3000443213785BB2013301D1002313702200C6
:101E4000453213785BB2013301D100231370FFF7E1
:101E50001BFD01A902A800F08FFB00284AD1FFF763
:101E600007FDA56BFFF710FD002D3DD12368002B6A
:101E700006D1FFF7FDFC606800F0C4FBFFF704FD2E
:101E800020000199243000F019FB2000FFF78EFE9E
:101E900000F00EFA002801D1FFF7DEFC0126FFF763
:101EA000E7FCA56B002DB0D039002000E668FFF7F5
:101EB0006BFE009B002BA1D12368013DA563002B85
:101EC00002D100F00BFC60602369002B07D02000DA
:101ED000103000F005FB002801D0FFF7BDFCFFF734
:101EE000D3FC012005B0F0BD2000FFF75FFE00F03D
:101EF000DFF9D3E72000FFF759FE00F0D9F9FFF72B
:101F0000B7FCA56BFFF7C0FC002DC7D182E700F03E
:101F100069FB00260028C2D1019E002EBFD072B6F8
:101F2000FEE70000074A13681968074B002903D130
:101F3000012252421A6070471268D268D268526811
:101F4000F8E7C046400C0020180D0020F8B504004A
:101F5000144B154D1E6828680F000430FFF732FC43
:101F6000631C07D1002F05D0296810480431FFF702
:101F700006FCF8BD2B6834195C60A64206D90C4BF0
:101F8000186829680431FFF706FCF2E7094B186866
:101F900029680431FFF7FFFB074B1A689442E8D227
:101FA0001C60E6E7600D00203C0C0020380D00208E
:101FB000440C0020400C0020180D0020F0B59500C6
:101FC00085B0029028000F000393FFF7FFFC061E68
:101FD00000D18EE05420FFF7F9FC041E00D185E00B
:101FE0000723043D066376199E43002300961A00DA
:101FF000F95C3432A154FA5C002A02D00133102B70
:10200000F5D1230000250A9E43331D70062E00D90A
:102010000626231D1800E6626664A5640193FFF797
:10202000ABFB20001830FFF7A7FB07239E1B230004
:1020300050332461A6616462E564039A1D700299BD
:102040000098FFF7F7FB0B9B2060002B00D01C6073
:10205000FFF70EFC2E4B2F4D1A6801321A602A68CA
:10206000002A49D12C601B68012B1DD12A4E370054
:102070008C3730001436FFF774FBB742F9D1274E86
:102080003000FFF76EFB264F3800FFF76AFB25484C
:10209000FFF767FB2448FFF764FB2448FFF761FB69
:1020A000234B1E60234B1F60234A136801331360C8
:1020B000224AE36A11688B4200D913601420584306
:1020C000154B01991818FFF75AFBFFF7DDFB1C4B66
:1020D00001261B68002B06D02B68DA6AE36A9A4255
:1020E00001D2FFF7B9FB300005B0F0BD3000FFF7BB
:1020F000EFFC01267642F6E7114B1B68002BD3D18B
:102100002B68E26ADB6A9342CED82C60CCE7C046EB
:10211000D40C00203C0C0020480C0020EC0C0020CB
:10212000000D0020200D00204C0D0020380D002057
:10213000400C0020440C0020E40C0020E80C00209F
:10214000340D002013B500240D4B00940193802220
:1021500023000C490C48FFF731FF01280BD172B660
:1021600001220A4B52421A60094B1860094B1C604D
:10217000FFF7EEFB13BD431CFCD172B6FEE7C04671
:10218000140D00205C310008E9230008180D002020
:10219000340D0020600D0020024A136801331360E3
:1021A0007047C046E00C0020014B18687047C046DD
:1021B000600D0020334BF7B51B68002B35D1324B37
:1021C0001C6801341C60002C11D1304B1A68126855
:1021D000002A01D072B6FEE72D4A1968106818600F
:1021E00011602C4A136801331360FFF79BFE2A4FDE
:1021F00000263B689C4207D3244B1A681268002AC9
:1022000019D101235B423B60244B1B68DA6A14231B
:102210005343234AD358012B00D90126214B1B6875
:10222000002B00D001263000FEBD1F4A0026136897
:1022300001331360F2E71B68DB68DD686B689C4262
:10224000E1D32B1D18000193FFF7BCFAAB6A002BFA
:1022500003D028001830FFF7B5FA144BE86A1A6863
:10226000904200D91860142358430D4B291D1818AB
:10227000FFF785FA094BEA6A1B68DB6A9A42BBD30F
:102280000126B9E7E00C0020600D0020400C002082
:10229000440C00201C0D0020180D00203C0C0020D8
:1022A000480C0020640D0020DC0C0020E80C00200D
:1022B000F8B52B4C2368002B01D172B6FEE7FFF76F
:1022C000D7FA2368013B23602468002C04D0002443
:1022D000FFF7DAFA2000F8BD224B1B68002BF6D07E
:1022E00014260127204B1A68002A1AD1002C01D08D
:1022F000FFF718FE1D4D2C68002C0AD00126FFF7B1
:1023000059FF002801D01A4B1E60013C002CF6D169
:102310002C60174B1B68002BD9D0FFF79DFA0124C6
:10232000D6E7DB68DC682000251D1830FFF74AFA85
:102330002800FFF747FA0F4BE06A1A68904200D96D
:10234000186070430C4B29001818FFF718FA0B4B54
:10235000E26A1B68DB6A9A42C4D3054B1F60C1E77F
:10236000E00C0020D40C0020200D0020DC0C00200C
:10237000640D0020E80C0020480C00203C0C0020DC
:1023800070B505000C00002801D172B6FEE70029E7
:1023900001D172B6FEE7124B1E68002E01D072B654
:1023A000FEE7FFF7F9FE0F4B2A681868A418904261
:1023B00005D2A24206D9A042B641764202E00126E9
:1023C000A242F8D92C60002E03D0201A0021FFF77A
:1023D000BDFDFFF76DFF002801D1FFF73DFA70BD8D
:1023E000E00C0020600D002070B5154C2368002B18
:1023F00006D1144B1B68012BF7D9FFF72DFAF4E730
:10240000FFF7CAFE104D2E68FFF752FF002EECD0EA
:10241000FFF72EFAEB68DD68281DFFF7D3F90B4AAA
:102420001368013B13602368013B2360FFF72CFA1C
:10243000286BFFF74DFB2800FFF74AFBD5E7C046A6
:10244000D80C0020480C00204C0D0020D40C00209B
:10245000154B30B51A68154B002A02D001221A60BC
:1024600030BD142412481A600268124923005343F5
:102470005D58002D12D0CC18656808336D68CB18F4
:1024800065609D4201D16B68636014235343C91892
:102490004B68D968084B19600260E1E7002A01D156
:1024A00072B6FEE7013AE1E7E00C0020640D00207F
:1024B000E80C0020480C00203C0C002010B50C005B
:1024C000002801D172B6FEE7044B19681831FFF7F6
:1024D00062F901212000FFF739FD10BD3C0C0020FE
:1024E000C36870B5DC68002C01D172B6FEE7250028
:1024F00018352800FFF766F9114B1B68002B1BD11C
:10250000251D2800FFF75EF90E4AE36A11688B4229
:1025100000D913601420290043430B48C018FFF76B
:102520002EF90A4BE26A1B680020DB6A9A4202D944
:10253000074B0130186070BD29000648EFE7C04620
:10254000E00C0020E80C0020480C00203C0C00208F
:10255000640D0020200D0020002801D172B6FEE796
:10256000034B1B680360034B1B6843607047C04606
:102570001C0D0020600D002070B504000D00002827
:1025800001D172B6FEE7002901D172B6FEE7FFF76E
:102590006FF90F4B002619682B685A1C13D00D4A8F
:1025A000266810686268864202D0012691420AD2EB
:1025B000881A0126834206D95B1A9B182B602000DB
:1025C000FFF7CAFF0026FFF75FF9300070BDC04675
:1025D000600D00201C0D00200122014B1A60704785
:1025E000640D0020054B01201B68002B04D0044B18
:1025F00018684342584140007047C046340D0020DF
:10260000E00C0020F8B5041E26D0164FC16A3B68C6
:10261000DB6A994220D28369002B04DB07223B68E6
:10262000DB6AD21A826114234B430F4E6269F3189E
:102630009A4212D1251D2800FFF7C4F83B680B4AC7
:10264000DB6A1168E3628B4200D91360142058439F
:1026500029003018FFF793F8F8BD3B68DB6AE362A6
:10266000FAE7C0463C0C0020480C0020E80C002093
:1026700070B5041E01D1002070BD154B1B68984237
:1026800001D072B6FEE7836C002B01D172B6FEE773
:10269000C26A416C013B83648A42ECD0002BEAD1D0
:1026A000051D2800FFF78EF80723606C1B1AA36135
:1026B000084BE0621A68904200D918601423434323
:1026C00005482900C018FFF75AF80120D4E7C04692
:1026D0003C0C0020E80C0020480C0020044B1A6839
:1026E000002A03D019688A6C01328A64186870471E
:1026F0003C0C002010B500F09BFA80210A488901AB
:10270000FDF74CFF0100094800F07BF8084B1A6800
:1027100001321A601968074A914204D900221A60EE
:10272000054B01321A7010BD000800487C0D0020D6
:10273000680D0020102700006C0D002010B5021E4F
:1027400000D0012290202021C005FDF72DFF10BDF3
:1027500010B5021E00D0012290201021C005FDF707
:1027600023FF10BD07B56A460B00D11D0B70FA237D
:1027700001225B000148FEF777FE07BDB00E002086
:10278000024B0233DB7F037000207047900F002064
:1027900070B5050008000C00FDF7B6FCFA2382B204
:1027A0005B0028002100FEF75FFE70BD0200EC32E6
:1027B0001278030012090020052A11D11A00EE3206
:1027C00011780132127809020A439A210020890007
:1027D0008A4205D9E833196804308A4200D01A6069
:1027E0007047C9B2531F017159424B41063ADBB2DF
:1027F0004370531E9A410023D2B242708370C3705B
:1028000070474378002B01D0002904D04378002B77
:1028100025D1002923D04379DBB25A1CD2B24271B0
:102820000279934218D34378002B06D0002904D1B3
:1028300003238371023B8370C1704378DBB2002BAA
:1028400006D1002904D002228271013AC27083703D
:10285000002341704371704704238371FBE781714A
:10286000F9E770B505000C002178002900D170BD92
:102870000020AB6898470134F6E770B56425040082
:102880002A000021143000F042FC20002A00002120
:10289000783000F03CFC22000023DC321370DE3480
:1028A0005370FF33237070BD70B5642504008360DE
:1028B000049B0160C360069B426003612A00002103
:1028C000143000F024FC20002A000021783000F0B1
:1028D0001EFC23000020DC3318705870059BE03488
:1028E000236070BD10B5040000202368984723685A
:1028F0000120984763680120984710BD73B56B4667
:102900000400DD1D2800E36898472000DC300178D2
:10291000C9B200291AD12300DD331A782D78D2B23A
:10292000561CF6B2A2181E7015751A78622A00D9C4
:10293000197000211A78A21811750D2D06D1E434F2
:1029400022788A4203D11A700123037073BD21706B
:10295000FCE770B50D000400FFF78FFF2900200091
:10296000FFF77FFF70BD0000F0B589B01422002191
:1029700003A800F0CCFB8020264BC00359699025AA
:10298000014359615A69ED05024080200092009A86
:10299000596980020143596180215A69C902024084
:1029A0000192019A5A691C4E0A435A615B692800D8
:1029B0000B40029301223021029BFDF7F5FD00221E
:1029C00030000221FDF7F0FD00243023012703A988
:1029D00028000393049705940694FDF72FFD022326
:1029E0003000032603A90393049705940694FDF78A
:1029F00025FD03A90948039604960594FDF71EFDDD
:102A0000074B03A92800039304960594FDF716FDD0
:102A100009B0F0BD00100240000400480014004856
:102A2000C26000002023024A11880B4313807047C4
:102A3000840D0020F0B505008DB00F0016000021B8
:102A4000282202A800F063FB0A212800FDF778FB8A
:102A50000001C4B20A212800FDF7F8FB3800CDB20E
:102A60000A21FDF76DFB0001C3B20A213800009373
:102A7000FDF7ECFB3000CFB20A21FDF761FB00014E
:102A8000C3B20A2130000193FDF7E0FB6419231C57
:102A9000E4B2C9B2232C00D9232302AA1370009BED
:102AA000DF193B1CFFB2592F00D9592302AA5370DA
:102AB000019B59180B1CC9B2592900D9592302AAE4
:102AC0009370802301221B06079302AB9B18DA77D1
:102AD000802302A95B0005480B93FEF74DFA0028FE
:102AE00001D000F0ADF90DB0F0BDC046900E002051
:102AF00070B586B001AE14220021300000F007FB53
:102B00001F4D204B00242B604F23AB60F423280083
:102B1000FF3300946C60EB602C616C61AC61FEF77C
:102B2000F3F8A04201D000F08BF901223100280017
:102B300034707470B470F4603461FEF745F90028A5
:102B400001D000F07DF901246B466A461C70022317
:102B5000537000239470D370694622002800FEF75A
:102B6000A7F9002801D000F06BF9074B01201C7079
:102B7000064B1A78064B1978FFF75CFF06B070BD5C
:102B8000900E0020002800406D0D00206F0D0020E9
:102B90006E0D00200B480C4B10B5036096239B0173
:102BA00043600C22002342618360C3600361836140
:102BB000C36103624362FEF7E9FB002801D000F025
:102BC0003FF910BDB00E0020003801400B480C4BFF
:102BD00010B5036096239B0143600C2200234261E1
:102BE0008360C36003618361C36103624362FEF774
:102BF000CDFB002801D000F023F910BD200F0020EC
:102C000000440040064B026810B59A4207D10548BF
:102C1000FFF774FE012204490448FEF753FA10BD81
:102C200000380140980D0020B10F0020B00E0020A8
:102C3000024A1368013313607047C046700D0020CC
:102C400010B5102496B0302200210AA800F05FFAD7
:102C50002200002101A800F05AFA1422002105A840
:102C600000F055FA0A230AA80A93093B0D930E9423
:102C70001193FDF7A7FC002801D000F0E1F8002136
:102C8000072301A80193029103910491FDF7B2FE7D
:102C9000002801D000F0D4F8074B05A805930023C5
:102CA000079380239B000693FDF750FF002801D077
:102CB00000F0C6F816B010BD0100010013B5FFF713
:102CC00073FAFA2401906400210001A8FFF758FB71
:102CD00005490648FFF75CFD002305481A00190066
:102CE0000068FEF7E9FFEFE761310008200F0020E0
:102CF000740D002010B5FFF757FA022421000C488C
:102D0000FDF74CFC424242412100D2B20848FDF797
:102D10004BFC002301220748524219000068FFF7CC
:102D20005AF80128EAD104490448FFF731FDE5E7E4
:102D300000040048740D00206D310008200F0020B1
:102D40007FB52D4B00245B6AFDF798FAFFF778FFFB
:102D5000FFF70AFEFFF7CCFEFFF71CFFFFF736FF79
:102D6000FFF702FEFFF7C4FEFFF714FFFFF72EFF89
:102D7000062228212148FFF734FD01268022230066
:102D800052001F49019400961E48FFF717F9802250
:102D9000230052001C49019400961C48FFF70EF9CD
:102DA0001B4B1C4D02931C4B1C4A01931C4B1D4991
:102DB000009328001C4BFFF777FD2B00DE331870C3
:102DC0002800FFF78FFD19491948FFF7E1FC802023
:102DD0004000FDF7EFFB032221003000FEF74FFF1C
:102DE000144B1860FEF7B0FC28001349FFF7B1FD43
:102DF0001248FDF761FAF7E7001002407C0D002051
:102E00007B310008BD2C000883310008F52C000838
:102E1000AD270008980D0020004BE236512700082E
:102E2000812700083D270008652700089331000826
:102E3000200F0020740D0020A8310008B80B0000FE
:102E40007047000007B501200B4B99690143996158
:102E500080219A69490502400092009ADA69033894
:102E60000A43DA61DB6900220B4001930321019BD5
:102E7000FDF732FA07BDC04600100240094B026858
:102E800010B59A420DD18023074A1B02116A022015
:102E90000B43136203210022FDF71EFA0220FDF707
:102EA0004BFA10BD002800400010024030B505006C
:102EB0008BB01422002105A800F029F92B68334AB1
:102EC000934240D18020324BC001996901439961FE
:102ED00080219A69890202400192019A5A699020E0
:102EE0000A435A615B69C0050B400293029BC023F1
:102EF000DB000593022306930133089305A9023BE7
:102F00000993FDF79BFA234C234B80222360002377
:102F1000E2602000603A6360A36023616361A261A4
:102F2000E361FDF731FA002801D0FFF789FF1B208C
:102F30006C66002203216562FDF7CEF91B20FDF7C8
:102F4000FBF90BB030BD154A9342FAD18022104BE9
:102F50009202D96990201143D961D969C005114005
:102F6000039103995969114359615B6905A91A4095
:102F70000492049B0C2305930A3B069301330893A8
:102F8000023B0993FDF75AFADBE7C04600380140DF
:102F900000100240B80F0020300002400044004002
:102FA0007047FEE710B5FDF779F9FEF7D2FBFDF7A4
:102FB000E7F910BD10B50248FDF754FE10BDC0463C
:102FC000900E00207047000010B50248FEF730FB5D
:102FD00010BDC046B00E00200121134B13481A68E3
:102FE0000A431A605A6802405A601A681048024040
:102FF0001A601A680F4802401A605A680E48024068
:103000000F205A60DA6A8243DA621A6B0B48024078
:103010001A638022186B02431A635A6B8A435A63FD
:1030200000229A607047C046001002400CB8FF08AA
:10303000FFFFF6FEFFFFFBFFFFFFC0FF6CFEFFFF81
:103040001348854604200168090E1F22914205D1CC
:103050001048012101601048002101600F4810490B
:10306000104A002302E0D458C4500433C4188C42E0
:10307000F9D30D4A0D4C002301E013600432A24243
:10308000FBD3FFF7A9FF00F015F8FFF759FEFEE7A5
:10309000001800201810024000000140000000202D
:1030A00008000020CC31000808000020FC0F0020A0
:1030B000FEE7000070B500260C4D0D4C641BA410FB
:1030C000A64209D1002600F02BF80A4D0A4C641BD9
:1030D000A410A64205D170BDB300EB589847013645
:1030E000EEE7B300EB5898470136F2E7C431000829
:1030F000C4310008C4310008C8310008002310B5ED
:103100009A4200D110BDCC5CC4540133F8E70300EF
:103110008218934200D1704719700133F9E700001B
:10312000F8B5C046F8BC08BC9E467047F8B5C04626
:08313000F8BC08BC9E46704784
:1031380002030405060708090A0B0C0D0E0F1010F0
:103148000102030405060708090A0B0C0D0E0F10EF
:103158000004080249444C4500434F524520534C53
:103168004545500D00486F6C61206D756E646F2089
:103178000D0A005461736B46534D005461736B54D0
:103188007855617274446562756700496E69636950
:103198006F2064656C2073697374656D610D0A0036
:1031A80041540D000000000000000000010203046B
:0C31B800060708090000000001020304E3
:0431C400E900000816
:0431C800C10000083A
:0831CC00AAAAAAAA00127A00C7
:04000005080030417E
:00000001FF
